:020000040800F2
:100000000050002021170008290C0008350C0008BA
:100010003B0C0008410C0008470C000800000000E1
:100020000000000000000000000000004D0C00086F
:10003000590C000800000000650C0008710C000855
:100040006917000869170008691700086917000890
:100050006917000869170008691700086917000880
:100060006917000869170008691700086917000870
:100070006917000869170008691700086917000860
:100080006917000869170008691700086917000850
:100090006917000869170008691700086917000840
:1000A0006917000869170008691700086917000830
:1000B0007D0C000869170008691700086917000817
:1000C0006917000869170008691700086917000810
:1000D00069170008890C00086917000869170008EB
:1000E0006917000869170008691700080000000078
:1000F0000000000000000000000000000000000000
:0C01000000000000000000005FF808F1A3
:10010C000348044B834202D0034B03B1184770479A
:10011C0004000020040000200000000005480649EF
:10012C00091A891001EBD171491002D0034B03B1AC
:10013C001847704704000020040000200000000055
:10014C0010B5064C237843B9FFF7DAFF044B13B113
:10015C000448AFF300800123237010BD040000207D
:10016C00000000006C17000808B5044B1BB10449D3
:10017C000448AFF30080BDE80840CFE70000000062
:10018C00080000206C17000870B50D4E0D4D761B45
:10019C00B61006D00024013455F8043B9847A6420B
:1001AC00F9D1094E094D01F0DBFA761BB61006D0D9
:1001BC000024013455F8043B9847A642F9D170BD90
:1001CC009C1700089C170008A01700089C17000833
:1001DC0080B485B000AF78607B6803F00703FB60E8
:1001EC000C4BDB68BB60BA684FF6FF031340BB6077
:1001FC00FB681A02BB68134343F0BF6343F400333C
:10020C00BB60044ABB68D36000BF1437BD4680BCDA
:10021C00704700BF00ED00E080B400AF044BDB681A
:10022C001B0A03F007031846BD4680BC704700BF8D
:10023C0000ED00E080B483B000AF0346FB71FB79A6
:10024C0003F01F02064997F907305B09012000FAF9
:10025C0002F241F8232000BF0C37BD4680BC70472A
:10026C0000E100E080B483B000AF03463960FB715D
:10027C0097F90730002B0BDA3B68DAB20C49FB79A3
:10028C0003F00F03043B1201D2B20B441A7609E0BF
:10029C003B68DAB2074997F907301201D2B20B4426
:1002AC0083F8002300BF0C37BD4680BC704700BFED
:1002BC0000ED00E000E100E080B489B000AFF86030
:1002CC00B9607A60FB6803F00703FB61FB69C3F15B
:1002DC000703042B28BF0423BB61FB690433062BE3
:1002EC0002D9FB69033B00E000237B614FF0FF3236
:1002FC00BB6902FA03F3DA43BB681A407B699A4084
:10030C004FF0FF317B6901FA03F3D9437B680B4053
:10031C00134318462437BD4680BC704780B400AFE9
:10032C00044B1B68034A43F00103136000BFBD4636
:10033C0080BC70470010024080B400AF064B1B68B5
:10034C0003F00203022B0CBF01230023DBB218467F
:10035C00BD4680BC704700BF0010024080B483B023
:10036C0000AF7860064B1B6823F0F8027B68DB005B
:10037C00034913430B6000BF0C37BD4680BC70476C
:10038C000010024080B483B000AF7860064B5B680D
:10039C0023F0030204497B6813434B6000BF0C3706
:1003AC00BD4680BC704700BF0010024080B400AF57
:1003BC00034B5B6803F00C031846BD4680BC7047CA
:1003CC000010024080B483B000AF7860064B5B68CD
:1003DC0023F0F00204497B6813434B6000BF0C37D9
:1003EC00BD4680BC704700BF0010024080B483B093
:1003FC0000AF7860064B5B6823F4E06204497B68CD
:10040C0013434B6000BF0C37BD4680BC704700BF28
:10041C000010024080B483B000AF7860064B5B687C
:10042C0023F4605204497B6813434B6000BF0C37C4
:10043C00BD4680BC704700BF0010024080B400AFC6
:10044C00044B1B68034A43F08073136000BFBD4626
:10045C0080BC70470010024080B400AF064B1B6894
:10046C0003F00073B3F1007F0CBF01230023DBB258
:10047C001846BD4680BC70470010024080B483B063
:10048C0000AF78603960084B5B6823F47C127B68A2
:10049C0003F440313B680B43034913434B6000BFEB
:1004AC000C37BD4680BC70470010024080B485B04C
:1004BC0000AF7860084BDA6907497B681343CB615E
:1004CC00054BDA697B681340FB60FB6800BF14378F
:1004DC00BD4680BC704700BF0010024080B485B0A0
:1004EC0000AF7860084B9A6907497B6813438B61AE
:1004FC00054B9A697B681340FB60FB6800BF14379F
:10050C00BD4680BC704700BF0010024080B483B071
:10051C0000AF7860064B1B6823F0070204497B6828
:10052C0013430B6000BF0C37BD4680BC704700BF47
:10053C000020024080B400AF034B1B6803F007039C
:10054C001846BD4680BC70470020024080B483B082
:10055C0000AF78607B68042B06D1094B1B68084AF6
:10056C0043F00403136005E0054B1B68044A23F0B9
:10057C000403136000BF0C37BD4680BC704700BF3E
:10058C0010E000E080B483B000AF78607B681B683B
:10059C0043F080027B681A6000BF0C37BD4680BCFC
:1005AC00704780B483B000AF786039607B689B681B
:1005BC0023F4804323F007033A681A437B689A605C
:1005CC0000BF0C37BD4680BC704780B483B000AF11
:1005DC00786039607B685B6823F070023B681A4373
:1005EC007B685A6000BF0C37BD4680BC704780B436
:1005FC0083B000AF78607B689B6823F080027B68D7
:10060C009A6000BF0C37BD4680BC704780B483B085
:10061C0000AF78607B68DB6843F400527B68DA607B
:10062C0000BF0C37BD4680BC704780B483B000AFB0
:10063C0078607B681B6923F490427B681A617B6845
:10064C005B6923F02A027B685A6100BF0C37BD46F8
:10065C0080BC704780B483B000AF78607B681B6946
:10066C0023F490427B681A617B685B6923F0220259
:10067C007B685A617B685B6943F008027B685A614E
:10068C0000BF0C37BD4680BC704790B488B000AF3B
:10069C00F860B9607A60FB681A46BB681B0E13449D
:1006AC001C462268BB687B617B6993FAA3F33B61B0
:1006BC003B69B3FA83F39B000F2101FA03F3DB438D
:1006CC001A40BB68FB61FB6993FAA3F3BB61BB697E
:1006DC00B3FA83F39B00796801FA03F313432360A5
:1006EC0000BF2037BD4690BC704780B483B000AFCC
:1006FC00786039603B681B0A9AB27B681A6100BF4C
:10070C000C37BD4680BC704780B483B000AF7860B6
:10071C0039603B681B0A9AB27B685A6100BF0C3780
:10072C00BD4680BC7047000080B400AF064B5B68D0
:10073C00054A23F0E0635360034B034A5B68536044
:10074C0000BFBD4680BC70470000014080B485B03E
:10075C0000AF78603960114A3B68DBB2023352F863
:10076C0023203B681B0CDB4302EA03013B681B0C98
:10077C00FB60FB6893FAA3F3BB60BB68B3FA83F32B
:10078C007A689A4005483B68DBB20A43023340F86A
:10079C00232000BF1437BD4680BC704700000140C9
:1007AC0080B582B000AF0120FFF798FE4FF080506B
:1007BC00FFF77CFE0320FFF70BFDFFF7B5FF00F002
:1007CC003DF800F073F900F0D3F800F027F900F0D1
:1007DC009DF800F077F840F608011748FFF794FFF2
:1007EC0000237B6014E042F220011348FFF77DFFE9
:1007FC004FF4FA7000F05CFF42F220010E48FFF754
:10080C0083FF4FF4FA7000F053FF7B6801337B6079
:10081C007B68042BE7DD42F220010748FFF765FFF8
:10082C0040F608010448FFF760FF41F2100102484E
:10083C00FFF75BFFFEE700BF0008014080B500AF8B
:10084C000120FFF763FEFFF775FE0346012B01D075
:10085C0000F0DEF91020FFF781FDFFF75FFD00BF10
:10086C00FFF76AFD0346012BFAD14FF4001100206B
:10087C00FFF704FEFFF7E2FD00BFFFF7EDFD0346B7
:10088C00012BFAD10020FFF79DFD4FF48060FFF79C
:10089C00ADFD0020FFF7BEFD0220FFF773FD00BF8A
:1008AC00FFF784FD0346082BFAD1054800F0F2FE51
:1008BC000420FFF74BFE024800F01EFF00BF80BD76
:1008CC00005A620280B500AFFFF7A6FC0346002277
:1008DC0000211846FFF7F0FC034619462520FFF7C8
:1008EC00C1FC2520FFF7A6FCFFF796FC034600226F
:1008FC0000211846FFF7E0FC034619461C20FFF7C1
:10090C00B1FC1C20FFF796FC00BF80BD80B586B003
:10091C0000AF3B1D00221A605A609A60DA601A61BF
:10092C000120FFF7C3FD0023BB800023BB6042F214
:10093C001073FB6000233B613B1D19464FF0804058
:10094C0000F02AFC4FF08040FFF71CFE00214FF016
:10095C008040FFF726FE00214FF08040FFF735FE68
:10096C004FF08040FFF743FE00BF1837BD4680BDF7
:10097C0080B58CB000AF07F1180300221A605A60E2
:10098C009A60DA601A615A613B1D00221A605A6043
:10099C009A60DA601A614FF48040FFF79FFD0420E3
:1009AC00FFF79CFD194B7B600923BB600323FB60A5
:1009BC0000233B613B1D1946154800F04AFA154BC4
:1009CC007B600423BB603B1D1946114800F041FAC3
:1009DC0047F61223BB610023FB6100233B6200231B
:1009EC007B620C23BB620023FB6207F118031946E0
:1009FC00094800F0C7FC0848FFF717FE0648FFF748
:100A0C0005FE00BF3037BD4680BD00BF02000204AA
:100A1C0000080140040004040038014080B58CB08B
:100A2C0000AF07F1180300221A605A609A60DA606E
:100A3C001A615A613B1D00221A605A609A60DA6092
:100A4C001A614FF40030FFF731FD0420FFF746FD2B
:100A5C0040F204437B600923BB600323FB60042347
:100A6C003B613B1D19460F4800F0F3F94FF4E1339D
:100A7C00BB610023FB6100233B6200237B620823E4
:100A8C00BB6207F118031946074800F07BFC0648C7
:100A9C00FFF7E0FD0448FFF7B9FD00BF3037BD4656
:100AAC0080BD00BF000801400044004080B588B004
:100ABC0000AF07F1180300221A605A603B1D002298
:100ACC001A605A609A60DA601A611020FFF706FD0E
:100ADC002020FFF703FD0420FFF700FD0820FFF79F
:100AEC00FDFC43F638014148FFF70EFE40494148F2
:100AFC00FFF70AFE404B7B600023BB603B1D194691
:100B0C003E4800F0A6F93E4B7B600023BB603B1DCA
:100B1C001946364800F09DF940F608037B60012326
:100B2C00BB600223FB6004233B6100237B613B1D04
:100B3C0019462E4800F08DF943F230037B600123F7
:100B4C00BB600223FB6000237B6104233B613B1DE4
:100B5C001946264800F07DF9254B7B600123BB60CC
:100B6C000223FB6000233B6100237B613B1D194684
:100B7C00204800F06EF9234B7B600023BB603B1DCB
:100B8C0019461C4800F065F91F490120FFF7DEFDEE
:100B9C001E490120FFF7DAFD2023BB6101233B77BF
:100BAC0000237B770323BB7707F11803184600F06B
:100BBC0041FA4023BB6101233B7700237B7702235F
:100BCC00BB7707F11803184600F034FA042242F2FE
:100BDC0020010848FFF759FD042244F24001054862
:100BEC00FFF753FD00BF2037BD4680BD0008014014
:100BFC007F077C04000C0140E000E0040010014081
:100C0C00DBC31904838083040100F0000100000F92
:100C1C0080B400AF00BFBD4680BC704780B400AF4D
:100C2C0000BFBD4680BC704780B400AFFEE780B407
:100C3C0000AFFEE780B400AFFEE780B400AFFEE784
:100C4C0080B400AF00BFBD4680BC704780B400AF1D
:100C5C0000BFBD4680BC704780B400AF00BFBD462E
:100C6C0080BC704780B400AF00BFBD4680BC7047ED
:100C7C0080B400AF00BFBD4680BC704780B400AFED
:100C8C0000BFBD4680BC704780B400AF154B1B68DD
:100C9C00144A43F001031360124B5A681149124B6A
:100CAC0013404B600F4B1B680E4A23F0847323F4E4
:100CBC00803313600B4B1B680A4A23F480231360A8
:100CCC00084B5B68074A23F4FE035360054B4FF453
:100CDC001F029A60054B4FF000629A6000BFBD4640
:100CEC0080BC7047001002400000FFF800ED00E0EF
:100CFC0090B488B000AFF860B9607A60FB681A46AF
:100D0C00BB681B0E13441C462268BB687B617B6965
:100D1C0093FAA3F33B613B69B3FA83F39B000F2176
:100D2C0001FA03F3DB431A40BB68FB61FB6993FADE
:100D3C00A3F3BB61BB69B3FA83F39B00796801FA37
:100D4C0003F31343236000BF2037BD4690BC7047AC
:100D5C0090B488B000AFF860B9607A60FB681A464E
:100D6C00BB681B0E13441C462268BB687B617B6905
:100D7C0093FAA3F33B613B69B3FA83F39B00032122
:100D8C0001FA03F3DB431A40BB68FB61FB6993FA7E
:100D9C00A3F3BB61BB69B3FA83F39B00796801FAD7
:100DAC0003F31343236000BF2037BD4690BC70474C
:100DBC0090B488B000AFF860B9607A60FB681A46EE
:100DCC00BB681B0E13441C462268BB687B617B69A5
:100DDC0093FAA3F33B613B69B3FA83F39B000421C1
:100DEC0001FA03F3DB431A40BB68FB61FB6993FA1E
:100DFC00A3F3BB61BB69B3FA83F39B00796801FA77
:100E0C0003F31343236000BF2037BD4690BC7047EB
:100E1C0080B487B000AFF860B9607A60FB68DA68BC
:100E2C00BB681B0ADB431A40BB681B0A7B617B69EE
:100E3C0093FAA3F33B613B69B3FA83F3796801FA44
:100E4C0003F31A43FB68DA6000BF1C37BD4680BC55
:100E5C00704780B588B000AF786039603B681B681C
:100E6C001B021B0C7B617B693B613B6993FAA3F30F
:100E7C00FB60FB68B3FA83F3FB6140E00122FB6982
:100E8C009A407B691340002B36D0FB69072B06D8A0
:100E9C0040F20112FB6902FA03F3BB6108E0FB6943
:100EAC00083B4FF0011202FA03F343F08063BB617D
:100EBC003B685B681A46B9697868FFF719FF3B68AD
:100ECC001B691A46B9697868FFF7A2FF3B685B6833
:100EDC00012B03D03B685B68092B0DD13B689B68E9
:100EEC001A46B9697868FFF733FF3B68DB681A4626
:100EFC00B9697868FFF75CFFFB690133FB617A69BC
:100F0C00FB6922FA03F3002BB8D1012318462037D2
:100F1C00BD4680BD80B483B000AF7860054B1A68C5
:100F2C0004497B6813430B6000BF0C37BD4680BC83
:100F3C00704700BF0004014080B483B000AF7860FC
:100F4C00054B1A687B68DB43034913400B6000BFF9
:100F5C000C37BD4680BC70470004014080B483B0A0
:100F6C0000AF7860054B5A6804497B6813434B60AB
:100F7C0000BF0C37BD4680BC704700BF0004014069
:100F8C0080B483B000AF7860054B5A687B68DB4354
:100F9C00034913404B6000BF0C37BD4680BC704703
:100FAC000004014080B483B000AF7860054B9A68B0
:100FBC0004497B6813438B6000BF0C37BD4680BC73
:100FCC00704700BF0004014080B483B000AF78606C
:100FDC00054B9A687B68DB43034913408B6000BF69
:100FEC000C37BD4680BC70470004014080B483B010
:100FFC0000AF7860054BDA6804497B681343CB601B
:10100C0000BF0C37BD4680BC704700BF00040140D8
:10101C0080B483B000AF7860054BDA687B68DB4343
:10102C0003491340CB6000BF0C37BD4680BC7047F2
:10103C000004014080B584B000AF78600123FB73DD
:10104C007B681B79002B60D07B681B68002B67D0FA
:10105C007B685B79012B0ED0022B17D0002B20D193
:10106C007B681B681846FFF78BFF7B681B6818466C
:10107C00FFF750FF18E07B681B681846FFF75CFF12
:10108C007B681B681846FFF769FF0DE07B681B68DF
:10109C001846FFF73FFF7B681B681846FFF75EFF9B
:1010AC0002E00023FB7300BF7B689B79002B37D0D9
:1010BC007B689B79022B0ED0032B17D0012B20D1F0
:1010CC007B681B681846FFF7A3FF7B681B681846F4
:1010DC00FFF768FF25E07B681B681846FFF774FF75
:1010EC007B681B681846FFF781FF1AE07B681B685A
:1010FC001846FFF757FF7B681B681846FFF776FF0B
:10110C000FE00023FB7300BF0BE07B681B681846E5
:10111C00FFF712FF7B681B681846FFF731FF00E0F2
:10112C0000BFFB7B18461037BD4680BD80B483B032
:10113C0000AF786039607B683A689A6200BF0C3700
:10114C00BD4680BC704780B483B000AF7860396016
:10115C007B683A68DA6200BF0C37BD4680BC7047CA
:10116C0080B483B000AF786039607B683A681A63EA
:10117C0000BF0C37BD4680BC704780B483B000AF55
:10118C0078607B685B6943F001027B685A6100BF41
:10119C000C37BD4680BC704780B584B000AF78601A
:1011AC0039600023FB607B681B68FB607B68274A07
:1011BC0093420BD07B68B3F1804F07D07B68244AF5
:1011CC00934203D07B68234A934206D1FB6823F0F9
:1011DC0070023B685B681343FB607B681B4A93425D
:1011EC000BD07B68B3F1804F07D07B68184A9342D1
:1011FC0003D07B68174A934206D1FB6823F44072F4
:10120C003B68DB681343FB607B68FA681A603B68D9
:10121C009B6819467868FFF796FF3B681B88194650
:10122C007868FFF783FF7B68084A934205D13B68D7
:10123C001B7C19467868FFF793FF7868FFF79DFFD2
:10124C00012318461037BD4680BD00BF002C01405D
:10125C00000400400008004080B483B000AF786008
:10126C007B68DB6803F40053B3F5005F0CBF01230C
:10127C000023DBB218460C37BD4680BC704780B4E7
:10128C0083B000AF786039607B681B6923F44052EF
:10129C003B681A437B681A6100BF0C37BD4680BCA3
:1012AC00704780B483B000AF786039607B685B694D
:1012BC0023F440723B681A437B685A6100BF0C37B9
:1012CC00BD4680BC7047000080B485B000AFF860AC
:1012DC00B9607A60BA6813469B0013449A001A44AA
:1012EC007B689B00B2FBF3F3254AA2FB03235B094B
:1012FC009BB21B0199B2BA6813469B0013449A0027
:10130C001A447B689B00B2FBF3F21D4BA3FB020358
:10131C005B09642000FB03F3D31A1B013233184A18
:10132C00A2FB03235B099BB203F0F0039BB20B44BB
:10133C0099B2BA6813469B0013449A001A447B680E
:10134C009B00B2FBF3F20E4BA3FB02035B09642080
:10135C0000FB03F3D31A1B013233094AA2FB03230C
:10136C005B099BB203F00F039BB20B449BB21A4672
:10137C00FB689A6000BF1437BD4680BC704700BF45
:10138C001F85EB5180B588B000AF786039600023C1
:10139C00FB770023BB617868FFF75EFF0346002BE9
:1013AC0045D17B68DB6823F4B05323F00C033A6817
:1013BC0051683A68D26811433A6812690A431A4371
:1013CC007B68DA603B689B6819467868FFF757FFC3
:1013DC003B685B6919467868FFF763FF07F1080300
:1013EC00184600F085F87B68134A934202D17B695A
:1013FC00BB610CE07B68114A934202D13B69BB6133
:10140C0005E07B680E4A934201D13B69BB61BB6925
:10141C00002B0CD03B681B68002B08D00123FB77FA
:10142C003B681B681A46B9697868FFF74DFFFB7F6C
:10143C0018462037BD4680BD0038014000440040AE
:10144C000048004080B400AF034B5B6803F00C0312
:10145C001846BD4680BC70470010024080B400AFF7
:10146C00034B5B6803F0F0031846BD4680BC704725
:10147C000010024080B400AF034B5B6803F4E063E0
:10148C001846BD4680BC70470010024080B400AFC7
:10149C00034B5B6803F460531846BD4680BC704731
:1014AC000010024080B400AF034B5B6803F4803340
:1014BC001846BD4680BC70470010024080B400AF97
:1014CC00034B5B6803F470131846BD4680BC704731
:1014DC000010024080B400AF044B5B685B0C03F05F
:1014EC0001031846BD4680BC704700BF0010024087
:1014FC0080B582B000AF786000F020F802467B68BF
:10150C001A607B681B68184600F03CF802467B6842
:10151C005A607B685B68184600F04AF802467B68A4
:10152C009A607B685B68184600F056F802467B6848
:10153C00DA6000BF0837BD4680BD000080B582B0C0
:10154C0000AF00237B60FFF77DFF0346042B06D022
:10155C00082B07D0002B09D1084B7B6009E0084B06
:10156C007B6006E000F04CF8786002E0034B7B6097
:10157C0000BF7B6818460837BD4680BD00127A0054
:10158C000024F40080B582B000AF7860FFF766FFEE
:10159C0003461B0903F00F03044AD35C1A467B680D
:1015AC00D34018460837BD4680BD00BF84170008DD
:1015BC0080B582B000AF7860FFF75CFF03461B0A72
:1015CC00044AD35C1A467B68D34018460837BD469C
:1015DC0080BD00BF9417000880B582B000AF786062
:1015EC00FFF754FF0346DB0A044AD35C1A467B68B8
:1015FC00D34018460837BD4680BD00BF941700087D
:10160C0080B582B000AF00237B6000233B60FFF706
:10161C0049FF38603B68002B03D0B3F5803F03D003
:10162C000BE00D4B7B600BE0FFF754FF03460133DF
:10163C000A4AB2FBF3F37B6002E0074B7B6000BF0E
:10164C00FFF73CFF03469B0C02337A6802FB03F363
:10165C0018460837BD4680BD00093D000024F40043
:10166C0080B483B000AF786039607A683B68B2FBB5
:10167C00F3F3074A013B5360054B00229A60044B7D
:10168C0005221A6000BF0C37BD4680BC704700BFF6
:10169C0010E000E080B582B000AF78604FF47A7152
:1016AC007868FFF7DDFF00BF0837BD4680BD00003E
:1016BC0080B485B000AF78600E4B1B68FB60FB6894
:1016CC007B68B3F1FF3F0CD07B6801337B6008E093
:1016DC00084B1B6803F48033002B02D07B68013B62
:1016EC007B607B68002BF3D100BF1437BD4680BCF8
:1016FC00704700BF10E000E080B483B000AF7860AA
:10170C00034A7B68136000BF0C37BD4680BC704732
:10171C0000000020002103E00B4B5B5843500431C8
:10172C000A480B4B42189A42F6D30A4A02E00023AD
:10173C0042F8043B084B9A42F9D3FFF7A5FAFEF79F
:10174C0023FDFFF72DF87047A417000800000020B8
:10175C00040000200400002020000020FEE7000010
:10176C00F8B500BFF8BC08BC9E467047F8B500BF82
:08177C00F8BC08BC9E46704752
:10178400000000000000000001020304060708092D
:08179400000000000102030443
:04179C0075010008CB
:0417A0004D010008EF
:0417A40000A24A0451
:0400000508001721B7
:00000001FF
