:020000040800F2
:1000000000500020893E00084513000851130008E5
:10001000571300085D130008631300080000000078
:10002000000000000000000000000000691300084C
:100030007513000800000000811300088D130008EC
:10004000D13E0008D13E0008D13E0008D13E000854
:10005000D13E0008D13E0008D13E0008D13E000844
:10006000D13E0008D13E0008D13E0008D13E000834
:10007000D13E0008D13E0008D13E0008D13E000824
:10008000D13E0008D13E0008D13E0008D13E000814
:10009000D13E0008D13E0008D13E00089913000867
:1000A000D13E0008D13E0008D13E0008D13E0008F4
:1000B000E9130008D13E000809140008D13E0008E9
:1000C000D13E0008D13E0008D13E0008D13E0008D4
:1000D000D13E0008B514000851150008D13E0008B3
:1000E000D13E0008D13E0008D13E000800000000CB
:1000F0000000000000000000000000000000000000
:0C01000000000000000000005FF808F1A3
:10010C000348044B834202D0034B03B1184770479A
:10011C0008000020080000200000000005480649E7
:10012C00091A891001EBD171491002D0034B03B1AC
:10013C00184770470800002008000020000000004D
:10014C0010B5064C237843B9FFF7DAFF044B13B113
:10015C000448AFF300800123237010BD0800002079
:10016C0000000000D43E000808B5044B1BB1044944
:10017C000448AFF30080BDE80840CFE70000000062
:10018C000C000020D43E000870B50D4E0D4D761BB2
:10019C00B61006D00024013455F8043B9847A6420B
:1001AC00F9D1094E094D03F08FFE761BB61006D01F
:1001BC000024013455F8043B9847A642F9D170BD90
:1001CC00344000083440000838400008344000082F
:1001DC0080B485B000AF78607B6803F00703FB60E8
:1001EC000C4BDB68BB60BA684FF6FF031340BB6077
:1001FC00FB681A02BB68134343F0BF6343F400333C
:10020C00BB60044ABB68D36000BF1437BD4680BCDA
:10021C00704700BF00ED00E080B400AF044BDB681A
:10022C001B0A03F007031846BD4680BC704700BF8D
:10023C0000ED00E080B483B000AF0346FB71FB79A6
:10024C0003F01F02064997F907305B09012000FAF9
:10025C0002F241F8232000BF0C37BD4680BC70472A
:10026C0000E100E080B483B000AF0346FB71FB7982
:10027C0003F01F02074997F907305B09012000FAC8
:10028C0002F2203341F8232000BF0C37BD4680BC5E
:10029C00704700BF00E100E080B483B000AF0346BC
:1002AC00FB71FB7903F01F02074997F907305B09D3
:1002BC00012000FA02F2603341F8232000BF0C3712
:1002CC00BD4680BC704700BF00E100E080B483B045
:1002DC0000AF03463960FB7197F90730002B0BDA3E
:1002EC003B68DAB20C49FB7903F00F03043B1201B3
:1002FC00D2B20B441A7609E03B68DAB2074997F997
:10030C0007301201D2B20B4483F8002300BF0C3724
:10031C00BD4680BC704700BF00ED00E000E100E08E
:10032C0080B489B000AFF860B9607A60FB6803F004
:10033C000703FB61FB69C3F10703042B28BF0423EC
:10034C00BB61FB690433062B02D9FB69033B00E05C
:10035C0000237B614FF0FF32BB6902FA03F3DA43EF
:10036C00BB681A407B699A404FF0FF317B6901FAF8
:10037C0003F3D9437B680B40134318462437BD461F
:10038C0080BC704780B400AF044B1B68034A43F039
:10039C000103136000BFBD4680BC704700100240D3
:1003AC0080B400AF064B1B6803F00203022B0CBF9A
:1003BC0001230023DBB21846BD4680BC704700BF4A
:1003CC000010024080B483B000AF7860064B1B680D
:1003DC0023F0F8027B68DB00034913430B6000BF7A
:1003EC000C37BD4680BC70470010024080B483B00F
:1003FC0000AF7860064B5B6823F0030204497B680E
:10040C0013434B6000BF0C37BD4680BC704700BF28
:10041C000010024080B400AF034B5B6803F00C0388
:10042C001846BD4680BC70470010024080B483B0B3
:10043C0000AF7860064B5B6823F0F00204497B68E0
:10044C0013434B6000BF0C37BD4680BC704700BFE8
:10045C000010024080B483B000AF7860064B5B683C
:10046C0023F4E06204497B6813434B6000BF0C37F4
:10047C00BD4680BC704700BF0010024080B483B002
:10048C0000AF7860064B5B6823F4605204497B68CC
:10049C0013434B6000BF0C37BD4680BC704700BF98
:1004AC000010024080B400AF044B1B68034A43F0B9
:1004BC008073136000BFBD4680BC704700100240C3
:1004CC0080B400AF064B1B6803F00073B3F1007FE0
:1004DC000CBF01230023DBB21846BD4680BC70471D
:1004EC000010024080B483B000AF78603960084BD4
:1004FC005B6823F47C127B6803F440313B680B434C
:10050C00034913434B6000BF0C37BD4680BC70479A
:10051C000010024080B485B000AF7860084BDA69F7
:10052C0007497B681343CB61054BDA697B68134041
:10053C00FB60FB6800BF1437BD4680BC704700BF32
:10054C000010024080B485B000AF7860084B9A6907
:10055C0007497B6813438B61054B9A697B68134091
:10056C00FB60FB6800BF1437BD4680BC704700BF02
:10057C000010024080B483B000AF7860064B1B685B
:10058C0023F0070204497B6813430B6000BF0C3750
:10059C00BD4680BC704700BF0020024080B400AF55
:1005AC00034B1B6803F007031846BD4680BC70471D
:1005BC000020024080B483B000AF78607B68042BCD
:1005CC0006D1094B1B68084A43F00403136005E08D
:1005DC00054B1B68044A23F00403136000BF0C375F
:1005EC00BD4680BC704700BF10E000E080B483B013
:1005FC0000AF78607B681B6843F001027B681A606F
:10060C0000BF0C37BD4680BC704780B483B000AFD0
:10061C0078607B681B6843F080027B681A6000BFBF
:10062C000C37BD4680BC704780B483B000AF786097
:10063C0039607B689B6823F4804323F007033A6896
:10064C001A437B689A6000BF0C37BD4680BC70476C
:10065C0080B483B000AF786039607B685B6823F04E
:10066C0070023B681A437B685A6000BF0C37BD466A
:10067C0080BC704780B483B000AF78607B689B68A7
:10068C0023F080027B689A6000BF0C37BD4680BCAB
:10069C00704780B483B000AF78607B686FF0010264
:1006AC001A6100BF0C37BD4680BC704780B483B064
:1006BC0000AF78607B686FF040021A6100BF0C37A6
:1006CC00BD4680BC704780B483B000AF78607B6857
:1006DC00DB6843F001027B68DA6000BF0C37BD4673
:1006EC0080BC704780B483B000AF78607B68DB68F7
:1006FC0043F400527B68DA6000BF0C37BD4680BC07
:10070C00704780B483B000AF78607B681B6923F4BA
:10071C0090427B681A617B685B6923F02A027B68D4
:10072C005A6100BF0C37BD4680BC704780B483B0A3
:10073C0000AF78607B681B6923F490427B681A6178
:10074C007B685B6923F022027B685A617B685B697A
:10075C0043F008027B685A6100BF0C37BD4680BC71
:10076C00704780B483B000AF78607B686FF0400254
:10077C001A6000BF0C37BD4680BC704780B483B094
:10078C0000AF78607B68DB6843F020027B68DA603E
:10079C0000BF0C37BD4680BC704780B483B000AF3F
:1007AC0078607B68DB6843F040027B68DA6000BFEE
:1007BC000C37BD4680BC704780B483B000AF786006
:1007CC007B68DB6823F080027B68DA6000BF0C3743
:1007DC00BD4680BC704790B488B000AFF860B9607B
:1007EC007A60FB681A46BB681B0E13441C462268D1
:1007FC00BB687B617B6993FAA3F33B613B69B3FAFA
:10080C0083F39B000F2101FA03F3DB431A40BB680F
:10081C00FB61FB6993FAA3F3BB61BB69B3FA83F386
:10082C009B00796801FA03F31343236000BF203760
:10083C00BD4690BC704780B483B000AF786039601F
:10084C007B689B68DA433B681B0A13409BB2002B06
:10085C000CBF01230023DBB218460C37BD4680BC0D
:10086C00704780B483B000AF786039603B681B0A76
:10087C009AB27B681A6100BF0C37BD4680BC7047CA
:10088C0080B483B000AF786039603B681B0A9AB2C1
:10089C007B685A6100BF0C37BD4680BC70470000B6
:1008AC0080B400AF064B5B68054A23F0E0635360ED
:1008BC00034B034A5B68536000BFBD4680BC704766
:1008CC000000014080B485B000AF78603960114AF7
:1008DC003B68DBB2023352F823203B681B0CDB4332
:1008EC0002EA03013B681B0CFB60FB6893FAA3F361
:1008FC00BB60BB68B3FA83F37A689A4005483B68DF
:10090C00DBB20A43023340F8232000BF1437BD4644
:10091C0080BC70470000014098B500AF0120FFF784
:10092C0011FE4FF08050FFF7F5FD0320FFF750FC50
:10093C00FFF7B6FF00F09AF800F020FA00F070F91B
:10094C0000F0C4F900F0FAF800F02AF900F0D2F83F
:10095C003D4B02221A703D4B01221A703C4BFF2278
:10096C001A7044F240013B48FFF765FF0346002B29
:10097C0014BF01230023DBB21C4642F22001354890
:10098C00FFF759FF0346002B01D0022300E00023A0
:10099C0023441A46304B1A6042F220012F48FFF7CD
:1009AC006FFF41F210012D48FFF76AFF40F6080176
:1009BC002A48FFF765FF4FF47A7001F015FB40F6FB
:1009CC0008012648FFF74DFF2520FFF74BFC26209A
:1009DC00FFF748FC02F0BEFC2148FFF7C2FE21489D
:1009EC00FFF7BFFE1E48FFF7E7FE1E48FFF7E4FEC9
:1009FC002520FFF751FC2620FFF74EFC2520FFF7A2
:100A0C0019FC2620FFF716FC1548FFF7B7FE144813
:100A1C00FFF7C3FE1348FFF7C0FE4FF08040FFF70F
:100A2C0038FE1148FFF735FE4FF08040FFF74BFEC4
:100A3C000D48FFF748FE4FF08040FFF737FE4FF0B0
:100A4C008040FFF7D3FDFEE73445002039460020F7
:100A5C0035450020000C01408C440020000801406A
:100A6C0000380140004400400008004080B500AF51
:100A7C000120FFF77FFDFFF791FD0346012B01D00D
:100A8C0000F02CFA1020FFF79DFCFFF77BFC00BF59
:100A9C00FFF786FC0346012BFAD14FF4001100201E
:100AAC00FFF720FDFFF7FEFC00BFFFF709FD034633
:100ABC00012BFAD10020FFF7B9FC4FF48060FFF74F
:100ACC00C9FC0020FFF7DAFC0220FFF78FFC00BF07
:100ADC00FFF7A0FC0346082BFAD1054801F076FA83
:100AEC000420FFF767FD024801F0A2FA00BF80BDA9
:100AFC00005A620280B500AFFFF78EFB034600225E
:100B0C0001211846FFF70CFC034619462520FFF778
:100B1C00DDFB2520FFF78EFBFFF77EFB0346002253
:100B2C0003211846FFF7FCFB034619461C20FFF770
:100B3C00CDFB1C20FFF77EFB00BF80BD80B586B0CF
:100B4C0000AF3B1D00221A605A609A60DA601A618D
:100B5C000120FFF7DFFC0923BB800023BB6040F2C0
:100B6C00E733FB6000233B613B1D19464FF080408F
:100B7C0000F0AEFF4FF08040FFF747FD00214FF033
:100B8C008040FFF751FD00214FF08040FFF760FDE2
:100B9C004FF08040FFF76EFD00BF1837BD4680BD9B
:100BAC0080B586B000AF3B1D00221A605A609A6077
:100BBC00DA601A610420FFF7ADFCFFF72DFB03464A
:100BCC00002205211846FFF7ABFB034619461E20F1
:100BDC00FFF77CFB1E20FFF72DFB40F69F73BB80BD
:100BEC000023BB600623FB6000233B613B1D1946C1
:100BFC000A4800F06DFF0948FFF707FD0021074880
:100C0C00FFF712FD00210548FFF722FD0348FFF70F
:100C1C0031FD00BF1837BD4680BD00BF0008004045
:100C2C0080B58CB000AF07F1180300221A605A602F
:100C3C009A60DA601A615A613B1D00221A605A6090
:100C4C009A60DA601A614FF48040FFF77BFC042055
:100C5C00FFF778FC194B7B600923BB600323FB6017
:100C6C0000233B613B1D1946154800F08EFD154BCA
:100C7C007B600423BB603B1D1946114800F085FDC9
:100C8C0047F61223BB610023FB6100233B62002368
:100C9C007B620C23BB620023FB6207F1180319462D
:100CAC00094801F00BF80848FFF72BFD0648FFF741
:100CBC0019FD00BF3037BD4680BD00BF02000204E5
:100CCC0000080140040004040038014080B58CB0D9
:100CDC0000AF07F1180300221A605A609A60DA60BC
:100CEC001A615A613B1D00221A605A609A60DA60E0
:100CFC001A614FF40030FFF70DFC0420FFF722FCC3
:100D0C0040F204437B600923BB600323FB60042394
:100D1C003B613B1D1946174800F037FDFFF77CFA85
:100D2C000346002202211846FFF7FAFA0346194639
:100D3C002620FFF7CBFA2620FFF77CFA47F6122382
:100D4C00BB610023FB6100233B6200237B62082311
:100D5C00BB6207F118031946074800F0AFFF0648BD
:100D6C00FFF7E4FC0448FFF7BDFC00BF3037BD467D
:100D7C0080BD00BF000801400044004080B588B031
:100D8C0000AF07F1180300221A605A603B1D0022C5
:100D9C001A605A609A60DA601A611020FFF7D2FB71
:100DAC002020FFF7CFFB0420FFF7CCFB0820FFF738
:100DBC00C9FB43F638014048FFF762FD3F49404804
:100DCC00FFF75EFD3F4B7B600023BB603B1D19466C
:100DDC003D4800F0DAFC3D4B7B600023BB603B1DC3
:100DEC001946354800F0D1FC43F638037B600123EB
:100DFC00BB600223FB6004233B613B1D19462E485C
:100E0C0000F0C3FC2D4B7B600123BB600223FB6015
:100E1C0000233B6100237B613B1D1946284800F0F1
:100E2C00B4FC2B4B7B600023BB603B1D1946244854
:100E3C0000F0ABFC27490120FFF744FD26490120B7
:100E4C00FFF740FD2023BB6101233B7700237B7719
:100E5C000323BB7707F11803184600F087FD4023E6
:100E6C00BB6101233B7700237B770223BB7707F120
:100E7C001803184600F07AFD042242F220011048B3
:100E8C00FFF7A9FC042244F240010D48FFF7A3FC34
:100E9C00FFF7C2F90346002204211846FFF740FA77
:100EAC00034619461720FFF711FA1720FFF7C2F96E
:100EBC0000BF2037BD4680BD000801407F077C0481
:100ECC00000C0140E000E00400100140DBC31904F9
:100EDC00838083040100F0000100000F80B400AF98
:100EEC0000BFBD4680BC704780B483B000AF0346E2
:100EFC00FB71FB7903F01F02064997F907305B0978
:100F0C00012000FA02F241F8232000BF0C37BD4645
:100F1C0080BC704700E100E080B483B000AF0346B2
:100F2C00FB71FB7903F01F02074997F907305B0946
:100F3C00012000FA02F2203341F8232000BF0C37C5
:100F4C00BD4680BC704700BF00E100E080B483B0B8
:100F5C0000AF0346FB71FB7903F01F02074997F9B9
:100F6C0007305B09012000FA02F2603341F82320BC
:100F7C0000BF0C37BD4680BC704700BF00E100E0ED
:100F8C0080B483B000AF7860074B5A697B6813401C
:100F9C007A689A420CBF01230023DBB218460C3747
:100FAC00BD4680BC704700BF0004014080B483B0D4
:100FBC0000AF7860034A7B68536100BF0C37BD46B5
:100FCC0080BC70470004014080B483B000AF7860EF
:100FDC007B681B6843F001027B681A6000BF0C370A
:100FEC00BD4680BC704780B483B000AF78607B682E
:100FFC001B6823F001027B681A6000BF0C37BD46EA
:10100C0080BC704780B483B000AF786039607B6877
:10101C003A685A6200BF0C37BD4680BC704780B43A
:10102C0083B000AF78607B686FF001021A6100BF7B
:10103C000C37BD4680BC704780B483B000AF78607D
:10104C007B68DB6843F001027B68DA6000BF0C3719
:10105C00BD4680BC704780B483B000AF78607B68BD
:10106C00DB6823F001027B68DA6000BF0C37BD46F9
:10107C0080BC704780B483B000AF78607B681B681D
:10108C0003F02003202B0CBF01230023DBB21846F6
:10109C000C37BD4680BC704780B483B000AF78601D
:1010AC007B681B6803F08003802B0CBF012300239B
:1010BC00DBB218460C37BD4680BC704780B483B099
:1010CC0000AF78607B686FF040021A6000BF0C378D
:1010DC00BD4680BC704780B483B000AF78607B683D
:1010EC00DB6843F080027B68DA6000BF0C37BD46DA
:1010FC0080BC704780B483B000AF78607B68DB68DD
:10110C0023F080027B68DA6000BF0C37BD4680BCE0
:10111C00704780B483B000AF78607B685B68DBB2EB
:10112C0018460C37BD4680BC704780B483B000AF06
:10113C0078600B46FB70FA787B685A6000BF0C37FE
:10114C00BD4680BC704780B483B000AF7860396016
:10115C007B689B68DA433B681B0A13409BB2002BED
:10116C000CBF01230023DBB218460C37BD4680BCF4
:10117C00704780B483B000AF786039603B681B0A5D
:10118C009AB27B681A6100BF0C37BD4680BC7047B1
:10119C0080B483B000AF786039603B681B0A9AB2A8
:1011AC007B685A6100BF0C37BD4680BC704780B469
:1011BC0085B000AF78607B6803F5FA5304331B8865
:1011CC001A467B689B5CFB737B6803F5FA5304330C
:1011DC001B8801339AB27B6803F5FA5304331A80E7
:1011EC007B6803F5FA5304331B88B3F5FA5F05D912
:1011FC007B6803F5FA53043300221A80FB7B1846F4
:10120C001437BD4680BC704780B584B000AF034630
:10121C00FB71424B1B781A4697F907301344FB605D
:10122C00FB68002B01DA0023FB60FB68FF2B01DD60
:10123C00FF23FB60FB68DAB2384B1A70374B1B7814
:10124C005B09FB72FB7A002B05D040F2011134488C
:10125C00FFF78FFF04E040F201113148FFF798FFD0
:10126C00FB7A012B05D940F202212D48FFF781FFB3
:10127C0004E040F202212A48FFF78AFFFB7A022B96
:10128C0005D940F204412648FFF773FF04E040F211
:10129C0004412348FFF77CFFFB7A032B04D9214937
:1012AC001F48FFF766FF03E01E491D48FFF770FF5C
:1012BC00FB7A042B04D91C491948FFF75AFF03E0A9
:1012CC0019491748FFF764FFFB7A052B04D9174916
:1012DC001348FFF74EFF03E014491148FFF758FF7E
:1012EC00FB7A062B04D912490D48FFF742FF03E0A5
:1012FC000F490B48FFF74CFF084B1B78FF2B04D111
:10130C000C490748FFF735FF03E00A490448FFF78B
:10131C003FFF00BF1037BD4680BD00BF35450020E4
:10132C00000C014004000404080008041000100420
:10133C00200020044000400480B400AF00BFBD4634
:10134C0080BC704780B400AFFEE780B400AFFEE70E
:10135C0080B400AFFEE780B400AFFEE780B400AF0E
:10136C0000BFBD4680BC704780B400AF00BFBD4617
:10137C0080BC704780B400AF00BFBD4680BC7047D6
:10138C0080B400AF00BFBD4680BC704780B500AFD5
:10139C001720FFF7C1FD1E20FFF7A6FD0E48FFF733
:1013AC004BFE0D48FFF710FE2020FFF7E9FD03462A
:1013BC00002B02D02020FFF7F9FD4020FFF7E0FDC5
:1013CC000346002B02D04020FFF7F0FD1720FFF75B
:1013DC00BDFD00BF80BD00BF0008004080B500AF60
:1013EC0072B6002002F0C6FA4FF08040FFF717FEED
:1013FC001C20FFF7ABFD62B600BF80BD90B583B07B
:10140C0000AF2548FFF7EFFD00212348FFF7FAFD59
:10141C002148FFF720FE44F240012048FFF793FEDD
:10142C000346002B14BF01230023DBB21C4642F2FF
:10143C0020011A48FFF787FE0346002B01D0022338
:10144C0000E0002323447B60154B1B687A689A42AA
:10145C0014D0134B1B68DBB29B00DAB27B68DBB297
:10146C001344FB70FB780F4AD35CBB7097F90230C6
:10147C001846FFF7C9FE0A4A7B6813600648FFF757
:10148C00CEFD1720FFF730FD1E20FFF75FFD00BFDC
:10149C000C37BD4690BD00BF00080040000C014059
:1014AC008C440020EC3E000880B582B000AF23488D
:1014BC00FFF7E0FD0346002B08D02048FFF729FE7C
:1014CC000346FB71FB79184602F09AFB1C4B03F5A3
:1014DC00FA5302331A881A4B03F5FA5304331B8858
:1014EC009A421DD01548FFF7D7FD0346002B1DD09F
:1014FC001348FFF75CFE034619461048FFF715FE2C
:10150C000F4B03F5FA5302331A880D4B03F5FA53BC
:10151C0004331B889A4209D00848FFF7DCFD05E02C
:10152C000648FFF7E7FD0548FFF7C8FD2520FFF744
:10153C000DFD00BF0837BD4680BD00BF003801401F
:10154C004425002080B500AF72B61B4B03F5FA534F
:10155C0002331A88184B03F5FA5304331B889A424A
:10156C001DD01648FFF798FD0346002B1DD01248DE
:10157C00FFF71DFE034619461048FFF7D6FD0E4B2C
:10158C0003F5FA5302331A880B4B03F5FA53043361
:10159C001B889A4209D00948FFF79DFD05E00748D2
:1015AC00FFF7A8FD0548FFF789FD2620FFF7CEFCC5
:1015BC0062B600BF80BD00BFD400002000440040D4
:1015CC0080B400AF154B1B68144A43F00103136041
:1015DC00124B5A681149124B13404B600F4B1B684E
:1015EC000E4A23F0847323F4803313600B4B1B6877
:1015FC000A4A23F480231360084B5B68074A23F4E0
:10160C00FE035360054B4FF41F029A60054B4FF0DD
:10161C0000629A6000BFBD4680BC7047001002405B
:10162C000000FFF800ED00E090B488B000AFF86067
:10163C00B9607A60FB681A46BB681B0E13441C46E3
:10164C002268BB687B617B6993FAA3F33B613B69BE
:10165C00B3FA83F39B000F2101FA03F3DB431A4027
:10166C00BB68FB61FB6993FAA3F3BB61BB69B3FA7B
:10167C0083F39B00796801FA03F31343236000BFE3
:10168C002037BD4690BC704790B488B000AFF8606E
:10169C00B9607A60FB681A46BB681B0E13441C4683
:1016AC002268BB687B617B6993FAA3F33B613B695E
:1016BC00B3FA83F39B00032101FA03F3DB431A40D3
:1016CC00BB68FB61FB6993FAA3F3BB61BB69B3FA1B
:1016DC0083F39B00796801FA03F31343236000BF83
:1016EC002037BD4690BC704790B488B000AFF8600E
:1016FC00B9607A60FB681A46BB681B0E13441C4623
:10170C002268BB687B617B6993FAA3F33B613B69FD
:10171C00B3FA83F39B00042101FA03F3DB431A4071
:10172C00BB68FB61FB6993FAA3F3BB61BB69B3FABA
:10173C0083F39B00796801FA03F31343236000BF22
:10174C002037BD4690BC704780B487B000AFF860BE
:10175C00B9607A60FB68DA68BB681B0ADB431A4025
:10176C00BB681B0A7B617B6993FAA3F33B613B6902
:10177C00B3FA83F3796801FA03F31A43FB68DA606E
:10178C0000BF1C37BD4680BC704780B588B000AF29
:10179C00786039603B681B681B021B0C7B617B69A2
:1017AC003B613B6993FAA3F3FB60FB68B3FA83F3E9
:1017BC00FB6140E00122FB699A407B691340002BDE
:1017CC0036D0FB69072B06D840F20112FB6902FAEE
:1017DC0003F3BB6108E0FB69083B4FF0011202FA0E
:1017EC0003F343F08063BB613B685B681A46B969DD
:1017FC007868FFF719FF3B681B691A46B969786866
:10180C00FFF7A2FF3B685B68012B03D03B685B686A
:10181C00092B0DD13B689B681A46B9697868FFF7AC
:10182C0033FF3B68DB681A46B9697868FFF75CFFE1
:10183C00FB690133FB617A69FB6922FA03F3002B24
:10184C00B8D1012318462037BD4680BD80B483B083
:10185C0000AF7860054B1A6804497B6813430B6032
:10186C0000BF0C37BD4680BC704700BF0004014070
:10187C0080B483B000AF7860054B1A687B68DB439B
:10188C00034913400B6000BF0C37BD4680BC70474A
:10189C000004014080B483B000AF7860054B5A68F7
:1018AC0004497B6813434B6000BF0C37BD4680BCBA
:1018BC00704700BF0004014080B483B000AF786073
:1018CC00054B5A687B68DB43034913404B6000BFF0
:1018DC000C37BD4680BC70470004014080B483B017
:1018EC0000AF7860054B9A6804497B6813438B60A2
:1018FC0000BF0C37BD4680BC704700BF00040140E0
:10190C0080B483B000AF7860054B9A687B68DB438A
:10191C00034913408B6000BF0C37BD4680BC704739
:10192C000004014080B483B000AF7860054BDA68E6
:10193C0004497B681343CB6000BF0C37BD4680BCA9
:10194C00704700BF0004014080B483B000AF7860E2
:10195C00054BDA687B68DB4303491340CB6000BF5F
:10196C000C37BD4680BC70470004014080B584B084
:10197C0000AF78600123FB737B681B79002B60D070
:10198C007B681B68002B67D07B685B79012B0ED0C2
:10199C00022B17D0002B20D17B681B681846FFF751
:1019AC008BFF7B681B681846FFF750FF18E07B68BD
:1019BC001B681846FFF75CFF7B681B681846FFF72F
:1019CC0069FF0DE07B681B681846FFF73FFF7B68DB
:1019DC001B681846FFF75EFF02E00023FB7300BF95
:1019EC007B689B79002B37D07B689B79022B0ED0C0
:1019FC00032B17D0012B20D17B681B681846FFF7EF
:101A0C00A3FF7B681B681846FFF768FF25E07B681F
:101A1C001B681846FFF774FF7B681B681846FFF7B6
:101A2C0081FF1AE07B681B681846FFF757FF7B683D
:101A3C001B681846FFF776FF0FE00023FB7300BF0F
:101A4C000BE07B681B681846FFF712FF7B681B686E
:101A5C001846FFF731FF00E000BFFB7B184610373C
:101A6C00BD4680BD80B483B000AF786039607B68C0
:101A7C003A689A6200BF0C37BD4680BC704780B490
:101A8C0083B000AF786039607B683A68DA6200BF77
:101A9C000C37BD4680BC704780B483B000AF786013
:101AAC0039607B683A681A6300BF0C37BD4680BC4E
:101ABC00704780B483B000AF78607B685B6943F09B
:101ACC0001027B685A6100BF0C37BD4680BC704771
:101ADC0080B584B000AF786039600023FB607B6810
:101AEC001B68FB607B68274A93420BD07B68B3F181
:101AFC00804F07D07B68244A934203D07B68234AEB
:101B0C00934206D1FB6823F070023B685B68134379
:101B1C00FB607B681B4A93420BD07B68B3F1804F10
:101B2C0007D07B68184A934203D07B68174A9342CC
:101B3C0006D1FB6823F440723B68DB681343FB60FF
:101B4C007B68FA681A603B689B6819467868FFF7EF
:101B5C0096FF3B681B8819467868FFF783FF7B6804
:101B6C00084A934205D13B681B7C19467868FFF7FD
:101B7C0093FF7868FFF79DFF012318461037BD4689
:101B8C0080BD00BF002C0140000400400008004054
:101B9C0080B483B000AF78607B68DB6803F40053DB
:101BAC00B3F5005F0CBF01230023DBB218460C37E2
:101BBC00BD4680BC704780B483B000AF786039609C
:101BCC007B681B6923F440523B681A437B681A619B
:101BDC0000BF0C37BD4680BC704780B483B000AFEB
:101BEC00786039607B685B6923F440723B681A4308
:101BFC007B685A6100BF0C37BD4680BC7047000043
:101C0C0080B485B000AFF860B9607A60BA681346EA
:101C1C009B0013449A001A447B689B00B2FBF3F3BD
:101C2C00254AA2FB03235B099BB21B0199B2BA683C
:101C3C0013469B0013449A001A447B689B00B2FB2A
:101C4C00F3F21D4BA3FB02035B09642000FB03F3BF
:101C5C00D31A1B013233184AA2FB03235B099BB234
:101C6C0003F0F0039BB20B4499B2BA6813469B0085
:101C7C0013449A001A447B689B00B2FBF3F20E4BA0
:101C8C00A3FB02035B09642000FB03F3D31A1B01C3
:101C9C003233094AA2FB03235B099BB203F00F0307
:101CAC009BB20B449BB21A46FB689A6000BF143778
:101CBC00BD4680BC704700BF1F85EB5180B588B016
:101CCC0000AF786039600023FB770023BB61786834
:101CDC00FFF75EFF0346002B45D17B68DB6823F4DE
:101CEC00B05323F00C033A6851683A68D268114338
:101CFC003A6812690A431A437B68DA603B689B684E
:101D0C0019467868FFF757FF3B685B691946786896
:101D1C00FFF763FF07F10803184600F085F87B68AE
:101D2C00134A934202D17B69BB610CE07B68114A78
:101D3C00934202D13B69BB6105E07B680E4A93423A
:101D4C0001D13B69BB61BB69002B0CD03B681B68A4
:101D5C00002B08D00123FB773B681B681A46B96936
:101D6C007868FFF74DFFFB7F18462037BD4680BDD6
:101D7C0000380140004400400048004080B400AFEF
:101D8C00034B5B6803F00C031846BD4680BC7047E0
:101D9C000010024080B400AF034B5B6803F0F0030B
:101DAC001846BD4680BC70470010024080B400AF9E
:101DBC00034B5B6803F4E0631846BD4680BC704778
:101DCC000010024080B400AF034B5B6803F4605317
:101DDC001846BD4680BC70470010024080B400AF6E
:101DEC00034B5B6803F480331846BD4680BC7047D8
:101DFC000010024080B400AF034B5B6803F4701317
:101E0C001846BD4680BC70470010024080B400AF3D
:101E1C00044B5B685B0C03F001031846BD4680BCA9
:101E2C00704700BF0010024080B582B000AF7860F0
:101E3C0000F020F802467B681A607B681B68184625
:101E4C0000F03CF802467B685A607B685B68184679
:101E5C0000F04AF802467B689A607B685B6818461B
:101E6C0000F056F802467B68DA6000BF0837BD46C2
:101E7C0080BD000080B582B000AF00237B60FFF70F
:101E8C007DFF0346042B06D0082B07D0002B09D16D
:101E9C00084B7B6009E0084B7B6006E000F04CF8D7
:101EAC00786002E0034B7B6000BF7B681846083704
:101EBC00BD4680BD00127A000024F40080B582B0CB
:101ECC0000AF7860FFF766FF03461B0903F00F03B2
:101EDC00044AD35C1A467B68D34018460837BD4683
:101EEC0080BD00BFFC3E000880B582B000AF7860BA
:101EFC00FFF75CFF03461B0A044AD35C1A467B6857
:101F0C00D34018460837BD4680BD00BF0C3F0008C3
:101F1C0080B582B000AF7860FFF754FF0346DB0A50
:101F2C00044AD35C1A467B68D34018460837BD4632
:101F3C0080BD00BF0C3F000880B582B000AF00230D
:101F4C007B6000233B60FFF749FF38603B68002B48
:101F5C0003D0B3F5803F03D00BE00D4B7B600BE05F
:101F6C00FFF754FF034601330A4AB2FBF3F37B60DD
:101F7C0002E0074B7B6000BFFFF73CFF03469B0C66
:101F8C0002337A6802FB03F318460837BD4680BD5E
:101F9C0000093D000024F40080B483B000AF7860E9
:101FAC0039607A683B68B2FBF3F3074A013B536034
:101FBC00054B00229A60044B05221A6000BF0C37B7
:101FCC00BD4680BC704700BF10E000E080B582B019
:101FDC0000AF78604FF47A717868FFF7DDFF00BFCF
:101FEC000837BD4680BD000080B485B000AF786076
:101FFC000E4B1B68FB60FB687B68B3F1FF3F0CD09A
:10200C007B6801337B6008E0084B1B6803F480336A
:10201C00002B02D07B68013B7B607B68002BF3D1EB
:10202C0000BF1437BD4680BC704700BF10E000E015
:10203C0080B483B000AF7860034A7B68136000BF44
:10204C000C37BD4680BC70470000002080B584B0C2
:10205C0000AF0346FB714A4B93F88730002B19D025
:10206C00474BB3F89230002B05D1FB793F2B0AD0AC
:10207C00FB79FF2B07D0FB799BB201339AB2404B13
:10208C00A3F89220C6E2012001F04EFC3C4B00224A
:10209C0083F88720FB792F2B52D8FB7903F00303AD
:1020AC00022B07D0032B09D0012B0BD1FC2001F004
:1020BC00CDFA07E0FA2001F0C9FA03E0FB2001F0A9
:1020CC00C5FA00BFFB7903F00C03042B02D0082BDC
:1020DC001BD09FE2002001F027FC294B002283F843
:1020EC008620B023FB730CE0FB7B184601F0AEFAA4
:1020FC007B2001F0ABFA002001F0A8FAFB7B013346
:10210C00FB73FB7BBE2BEFD984E21D4B012283F8C2
:10211C008620002001F008FC194B93F8A0301A46D9
:10212C00174B93F89E3003FB02F34EF2902292FB76
:10213C00F3F39BB21946002001F0CEFB00BF69E21D
:10214C00FB79CF2B1ED9FB79D72B1BD80C4B93F8D3
:10215C009C200B4B83F89D20FB7903F00703DAB22C
:10216C00074B83F89C20064B012283F88820044BF4
:10217C00002283F88920024B012283F88A2049E24D
:10218C0024000020FB793F3BC02B00F2428201A2CD
:10219C0052F823F0172600081F2600081F260008F7
:1021AC001F2600081F2600081F2600081F260008EF
:1021BC001F2600081F2600081F2600081F260008DF
:1021CC001F2600081F2600081F2600081F260008CF
:1021DC001F2600081F2600081F2600081F260008BF
:1021EC001F2600081F2600081F2600081F260008AF
:1021FC001F2600081F2600081F2600081F2600089F
:10220C001F2600081F2600081F2600081F2600088E
:10221C001F2600081F2600081F2600081F2600087E
:10222C001F2600081F2600081F2600081F2600086E
:10223C001F2600081F2600081F2600081F2600085E
:10224C001F2600081F2600081F2600081F2600084E
:10225C001F2600081F2600081F2600081F2600083E
:10226C001F2600081F2600081F2600081F2600082E
:10227C001F2600081F2600081F2600081F2600081E
:10228C001F2600081F2600081F2600081F2600080E
:10229C001F2600081F2600081F2600081F260008FE
:1022AC001F2600081F2600081F2600081F260008EE
:1022BC001F2600081F2600081F2600081F260008DE
:1022CC001F2600081F2600081F2600081F260008CE
:1022DC00BF240008C92400081F2600081F26000878
:1022EC001F2600081F260008D3240008DD24000840
:1022FC001F2600081F2600081F2600081F2600089E
:10230C001F2600081F2600081F2600081F2600088D
:10231C001F2600081F2600081F2600081F2600087D
:10232C001F2600081F2600081F2600081F2600086D
:10233C001F2600081F2600081F2600081F2600085D
:10234C001F2600081F2600081F2600081F2600084D
:10235C001F2600081F2600081F2600083925000824
:10236C001F2600081F2600081F2600081F2600082D
:10237C001F2600081F2600084325000843250008D7
:10238C001F2600081F2600081F2600081F2600080D
:10239C001F2600081F2600081F2600081F260008FD
:1023AC00E7240008F1240008FB2400080525000898
:1023BC000F25000819250008232500081F260008F2
:1023CC001F2600081F2600081F2600081F260008CD
:1023DC001F2600081F2600081F2600081F260008BD
:1023EC001F2600081F2600081F2600081F260008AD
:1023FC001F2600081F2600081F2600081F2600089D
:10240C001F2600081F2600081F2600081F2600088C
:10241C001F260008A52400082D2500082D250008DE
:10242C002D2500081F2600082D2500081F26000852
:10243C002D2500082D2500081F2600081F26000842
:10244C001F2600081F2600082D2500082D25000832
:10245C002D2500082D2500081F2600081F26000822
:10246C001F2600081F2600081F2600081F2600082C
:10247C001F2600081F2600081F2600081F2600081C
:10248C001F2600081F2600081F2600081F2600080C
:10249C00EF250008FB250008604B002283F88820FC
:1024AC005E4B012283F889205C4B012283F88A2041
:1024BC00B0E05A4B002283F88420ABE0574B01224A
:1024CC0083F88420A6E0554B002283F8A720A1E0D6
:1024DC00524B012283F8A7209CE0504B0C2283F82E
:1024EC009E2097E04D4B122283F89E2092E04B4B9E
:1024FC00182283F89E208DE0484B1E2283F89E20E4
:10250C0088E0464B242283F89E2083E0434B2A220A
:10251C0083F89E207EE0414B302283F89E2079E0A8
:10252C00FB799AB23D4BA3F8902073E03B4B2822E9
:10253C0083F8A2206EE0B023FB730CE0FB7B184603
:10254C0001F084F87B2001F081F8002001F07EF886
:10255C00FB7B0133FB73FB7BBE2BEFD90023FB739F
:10256C0016E0FA7B2D491346DB009B1A5B000B44EB
:10257C00043300221A80FA7B28491346DB009B1A8D
:10258C005B000B44113300221A70FB7B0133FB738D
:10259C00FB7B072BE5D9214B0022A3F874201F4BA2
:1025AC00002283F881201D4B93F884201B4B83F869
:1025BC0082201A4B93F88230002B03D1174B002248
:1025CC0083F88320154B93F89420144B83F89620B2
:1025DC00124B0022A3F89A20104B012283F88C2076
:1025EC0018E0FB799AB20D4BA3F8902012E06C2105
:1025FC00012001F071F9094B012283F8872000F0CA
:10260C00F9FD064B9B78002B04E0044B00229A70DA
:10261C0000E000BF1037BD4680BD00BF2400002085
:10262C0080B582B000AF0346FB71B44B9B78002B96
:10263C0004D1FB79184601F009F87DE3AF4BB3F8F0
:10264C009030EC2B2FD0EC2B0BDCE02B12D0E02BB2
:10265C0002DC002B7AD074E0E12B14D0E72B17D0DE
:10266C006FE0EE2B31D0EE2B26DBEF2B45D0FE2B83
:10267C005DD066E0A14B0022A3F890209F4AFB7925
:10268C0082F8A03058E39D4B0022A3F8902053E32E
:10269C009A4B0022A3F89020FB799B08DAB2974B57
:1026AC0083F8A52048E3954B0022A3F89020934A89
:1026BC00FB7982F894303FE3904B0022A3F89020F2
:1026CC008E4AFB7982F8953036E38C4B0022A3F8C6
:1026DC0090208A4BB3F8983023F0FF039AB2874BC3
:1026EC00A3F89820854BB3F89820FB799BB2134341
:1026FC009AB2824BA3F898201EE3804B0022A3F8D9
:10270C0090207E4BB3F89830DBB29AB27B4BA3F897
:10271C0098207A4BB3F898301AB2FB791B021BB293
:10272C0013431BB29AB2754BA3F8982004E3734B76
:10273C000022A3F89020714AFB79537000F00AFE36
:10274C00FAE26E4B0022A3F89020F5E200BF6B4B2F
:10275C0093F88830002B00F08C80684B93F88A300B
:10276C00002B63D0654B002283F88A20644B002237
:10277C001A70FB7903F0F003B02B25D0B02B06DCDC
:10278C00902B21D0A02B1FD0802B1DD038E0D02B2C
:10279C0009D0D02B02DCC02B05D031E0E02B13D0BC
:1027AC00F02B22D02CE0554B93F89C301946534A11
:1027BC000B46DB005B1A5B0013440633FA791A7084
:1027CC00504B02221A7032E04C4B93F89C30194655
:1027DC004A4A0B46DB005B1A5B0013440633FA795A
:1027EC001A70484B03221A7021E0444B002283F8E4
:1027FC008820424B93F89D20404B83F89C209BE211
:10280C003F4B1B780133DAB23D4B1A703B4B93F8BC
:10281C009C301946394A0B46DB005B1A5B001344AB
:10282C0006331B78184600F011FF00E000BF344B54
:10283C001A78344B1B789A4209D2FB79184600F06F
:10284C0005FF2F4B1B780133DAB22D4B1A702C4B32
:10285C001A782C4B1B789A4240F06982274B002245
:10286C0083F88820254B93F89D20244B83F89C20DB
:10287C005DE2224B93F88930002B66D0FB79F72B65
:10288C0007D1F72000F0E2FE1C4B002283F88920D0
:10289C0052E21A4B93F88A30002B35D0174B00229A
:1028AC0083F88A20164B00221A70FB79F03B062B1A
:1028BC0020D801A252F823F0F928000801290008B9
:1028CC00E1280008E928000801290008012900086E
:1028DC00F12800080B4B03221A7016E0094B022258
:1028EC001A7012E0074B01221A700EE0054B002201
:1028FC001A700AE0034B00221A7006E02400002034
:10290C00CE000020CF00002000BFB24B1B78002B64
:10291C0005D0B14B1A78AF4B1B789A4209D2FB7990
:10292C00184600F093FEAC4B1B780133DAB2AA4B7D
:10293C001A70A94B1A78A74B1B789A4240F0F98170
:10294C00A64B002283F88920F3E1A44B93F8833043
:10295C00002B00F08580A14B93F98F300133032BB2
:10296C0000F2E98101A252F823F000BF432D0008C8
:10297C0089290008DF290008432A0008974B002208
:10298C0083F87F20FB79EF2B0DD8944B93F98F3084
:10299C00DBB20133DBB25AB2904B83F88F20FB7958
:1029AC00002B0CD106E08D4BFF2283F88F2000F01A
:1029BC0091FBC1E1894B012283F88D2003E0874B09
:1029CC00002283F88D20FB791AB2844BA3F8742073
:1029DC0045E0824B042283F88120FB79F82B02D04E
:1029EC00FB79F92B03D17D4B002283F881207B4BA3
:1029FC0093F87F301A46794B1344FA7983F8762092
:102A0C00764B93F87F300133DAB2744B83F87F2026
:102A1C00FB7903F0F003E02B02D000F05BFB1EE02F
:102A2C006E4B93F98F30DBB20133DBB25AB26B4B86
:102A3C0083F88F2013E0694B93F87F301A46674B6D
:102A4C001344FA7983F87620644B93F87F30013382
:102A5C00DAB2624B83F87F2000F03CFB00BF6AE1E6
:102A6C005E4B93F98F30002B04D0012B2DD0B3F19A
:102A7C00FF3F61E1FB79EF2B07D8584B012283F81C
:102A8C008F20FB79002B0CD106E0544BFF2283F8EE
:102A9C008F2000F01FFB4FE1504B012283F88D205B
:102AAC0003E04E4B002283F88D204C4B93F89C3066
:102ABC001946FB7918B2494A0B46DB005B1A5B00DE
:102ACC001344043302461A8036E1444B93F89C308D
:102ADC001A4642491346DB009B1A5B000B440F332A
:102AEC001B780133D8B23D491346DB009B1A5B00BF
:102AFC000B440F3302461A70384B93F89C3019462E
:102B0C00364A0B46DB005B1A5B0013440F331A7812
:102B1C00334B1A70324B1B78012B40F0E680FB795B
:102B2C0003F0F003B02B00F08280B02B06DC902B6E
:102B3C007DD0A02B7BD0802B79D09DE0D02B51D099
:102B4C00D02B02DCC02B4DD096E0E02B6FD0F02BBD
:102B5C0040F09280FB79F72B1DD9204B93F89C30D9
:102B6C0019461E4A0B46DB005B1A5B0013441133FB
:102B7C0001221A70194B93F89C301946174A0B46D0
:102B8C00DB005B1A5B0013440E33FA791A70114B9D
:102B9C0001221A70AAE0114B93F89C3019460F4A87
:102BAC000B46DB005B1A5B001344113302221A70D4
:102BBC000A4B93F89C301946084A0B46DB005B1A0B
:102BCC005B0013440E33FA791A70024B01221A700F
:102BDC008CE000BFCF000020CE000020240000209D
:102BEC00D0000020564B93F89C301946544A0B46A3
:102BFC00DB005B1A5B001344113303221A70504B39
:102C0C0093F89C301A464E491346DB009B1A5B0026
:102C1C000B4410330221197049491346DB009B1AEF
:102C2C005B000B4410331A78464B1A705EE0444B31
:102C3C0093F89C301946424A0B46DB005B1A5B004A
:102C4C001344113303221A703D4B93F89C301A46EF
:102C5C003B491346DB009B1A5B000B4410330321EA
:102C6C00197037491346DB009B1A5B000B44103379
:102C7C001A78344B1A7039E0334B1B780133DAB2C3
:102C8C00314B1A702E4B93F89C301A462C49134634
:102C9C00DB009B1A5B000B440F331B780133D8B25B
:102CAC0027491346DB009B1A5B000B440F3302468B
:102CBC001A70234B93F89C301946214A0B46DB00C3
:102CCC005B1A5B001344113303221A701C4B93F8EC
:102CDC009C3019461A4A0B46DB005B1A5B00134406
:102CEC0010331A78174B1A7000E000BF164B1B7884
:102CFC00012B02D1FB79EF2B10D8114B93F89C30A0
:102D0C001846114B1B785A1E0D490346DB001B1A43
:102D1C005B000B4413440633FA791A700A4B1A7889
:102D2C00084B1B789A4207D100F0D4F904E000BF9D
:102D3C0002E000BF00E000BF0837BD4680BD00BF09
:102D4C0024000020CF000020D000002080B584B0EB
:102D5C0000AF0346FB71FA7935491346DB009B1A29
:102D6C005B000B4411331B78012B04D0032B36D0A2
:102D7C00002B55D057E0FA792D491346DB009B1AEE
:102D8C005B000B440E331B78BB73BB7BFC2B49D114
:102D9C00BB7B184600F05AFC254B93F896305AB280
:102DAC00FB79012101FA03F35BB2DB435BB2134005
:102DBC005BB2DAB21E4B83F896201D4BB3F89A30F7
:102DCC001AB2FB79012101FA03F31BB2DB431BB2EC
:102DDC0013401BB29AB2164BA3F89A2022E00023A0
:102DEC00FB7310E0FA79F97B11481346DB009B1A50
:102DFC005B0003440B4406331B78184600F026FC9A
:102E0C00FB7B0133FB73FA7909491346DB009B1AF0
:102E1C005B000B440F331B78FA7B9A42E2D302E03F
:102E2C0000BF00E000BF00BF1037BD4680BD00BF33
:102E3C002400002080B582B000AF0346FB71FB7903
:102E4C001846FFF783FF284B93F896301A46FB7908
:102E5C0042FA03F303F00103002B2DD0FA79224937
:102E6C001346DB009B1A5B000B440F3300221A70D5
:102E7C00FA791D491346DB009B1A5B000B44113396
:102E8C0000221A70FA7918491346DB009B1A5B0072
:102E9C000B440433F0221A80134BB3F89A301AB255
:102EAC00FB79012101FA03F31BB213431BB29AB253
:102EBC000D4BA3F89A2012E00B4B93F89630002B95
:102ECC000DD1094B93F88230002B08D1064BB3F887
:102EDC009A3043F480539AB2034BA3F89A2000BF64
:102EEC000837BD4680BD00BF2400002080B400AF71
:102EFC001D4B93F87630FC2B1FD11B4B002283F813
:102F0C007620194B002283F88220174BB3F89A30A5
:102F1C0023F400739AB2144BA3F89A20124B93F833
:102F2C009630002B1BD1104BB3F89A3043F48053DE
:102F3C009AB20D4BA3F89A2011E00B4B002283F8A8
:102F4C007F20094BF022A3F87420074BB3F89A307A
:102F5C0043F400739AB2044BA3F89A2000E000BF2C
:102F6C00BD4680BC704700BF2400002080B582B0F5
:102F7C0000AF574B9B78002B00F0A480544B93F878
:102F8C008C30002B7FD10023FB7134E0504B93F835
:102F9C0096301A46FB7942FA03F303F00103002B37
:102FAC0026D0FA794A491346DB009B1A5B000B4486
:102FBC000433B3F900309BB2013B9BB218B24449C5
:102FCC001346DB009B1A5B000B44043302461A8049
:102FDC00FA793F491346DB009B1A5B000B44043320
:102FEC00B3F90030002B03DCFB791846FFF722FF06
:102FFC00FB790133FB71FB79072BC7D9344B93F861
:10300C008230002B10D0324BB3F974309BB2013BA1
:10301C009BB21AB22E4BA3F874202D4BB3F974301B
:10302C00002B01DCFFF762FF294B93F8A730002B34
:10303C001CD0274B93F8A6300133DAB2244B83F81B
:10304C00A620234B93F8A620214B93F8A5309A4247
:10305C000CD31F4B002283F8A6201D4BB3F89A30DB
:10306C0043F400539AB21A4BA3F89A20184B93F8D6
:10307C008C30002B09D1164BB3F89A30002B04D0AE
:10308C0000F044F802E000BF00E000BF002000F0B8
:10309C004BFC0F4B93F8A0309BB20D4A92F89E203C
:1030AC0092B202FB03F3BB80BB88002B0CD0BB8815
:1030BC004EF29022B2FBF3F39BB21946002000F0C3
:1030CC000BFC02E000BF00E000BF0837BD4680BD2E
:1030DC002400002080B500AF0B4B93F88D30002BF3
:1030EC0008D0094B012283F88E200121022000F028
:1030FC00F3FB06E0044B93F88E30002B01D100F06B
:10310C0005F800BF80BD00BF2400002080B582B050
:10311C0000AF0023FB71284B002283F88E20264B36
:10312C0093F88D30002B11D0234B002283F88D2087
:10313C00214B93F88330002B02D0FFF7D7FE05E02C
:10314C001D4B93F89C301846FFF774FE1A4B002267
:10315C0083F88C20184B93F88630002B27D0164B15
:10316C00B3F89A30002B22D0134BB3F89A301A468E
:10317C00FB7942FA03F303F00103002B11D00E4B41
:10318C00B3F89A301AB2FB79012101FA03F31BB29E
:10319C00DB431BB213401BB29AB2074BA3F89A2025
:1031AC0006E0FB795A1CFA710F2BDDD900E000BF49
:1031BC000837BD4680BD00BF2400002080B500AF9D
:1031CC000B4B002283F88720094BB3F89230002B6D
:1031DC000CD0074BB3F89230DBB2013BDBB2184694
:1031EC00FEF734FF024B0022A3F8922000BF80BDF3
:1031FC002400002080B582B000AF554B1B78002B0B
:10320C0014BF01230023DBB21A46514B9A700220E3
:10321C0000F08AFB4E4B002283F88E204C4B002290
:10322C0083F888204A4B002283F88920484B0022DF
:10323C0083F88220464B002283F88320444B0022E3
:10324C0083F88420424B002283F88620404B0022D6
:10325C0083F88B203E4B002283F88C203C4BFF22C2
:10326C0083F895203A4B002283F89420384B93F83E
:10327C009420374B83F89620354B4FF6FF72A3F80A
:10328C009820334B002283F88F20314B0022A3F877
:10329C0090202F4B002283F885202D4B642283F83D
:1032AC00A1202B4B93F8A120294B83F8A020284B6D
:1032BC001E2283F89F20264B93F89F20244B83F8E3
:1032CC009E20234B282283F8A320214B93F8A32084
:1032DC001F4B83F8A2201E4B002283F8A4201C4B0A
:1032EC00002283F8A7201A4B3C2283F8A520184B08
:1032FC00002283F8A620164B0022A3F89A20144B28
:10330C000022A3F87420124B002283F881200023A2
:10331C00FB7116E0FA790E491346DB009B1A5B0031
:10332C000B44113300221A70FA7909491346DB0059
:10333C009B1A5B000B44043300221A80FB79013387
:10334C00FB71FB79072BE5D900BF0837BD4680BD63
:10335C002400002080B500AF00F0F8FA114B5B7828
:10336C0023F07F03DAB20F4B5B7803F04003DBB240
:10337C001946104600F028FA00F01AFA0346002B02
:10338C000CD0084B00229A70064B01221A70054B88
:10339C001B78002B04D0FFF72DFF02E000BF00E0EC
:1033AC0000BF80BD2400002080B483B000AF7860E3
:1033BC007B68DB6843F400527B68DA6000BF0C3733
:1033CC00BD4680BC704780B483B000AF78607B682A
:1033DC001B6803F04003402B0CBF01230023DBB21E
:1033EC0018460C37BD4680BC704780B483B000AF24
:1033FC0078607B681B6803F08003802B0CBF012373
:10340C000023DBB218460C37BD4680BC704780B435
:10341C0083B000AF78607B686FF040021A6000BF29
:10342C000C37BD4680BC704780B483B000AF786069
:10343C007B68DB6843F080027B68DA6000BF0C3786
:10344C00BD4680BC704780B483B000AF78600B463B
:10345C00FB70FA787B685A6000BF0C37BD4680BCA5
:10346C00704780B485B000AF78607B6803F5FA5381
:10347C0004331B881A467B689B5CFB737B6803F5E3
:10348C00FA5304331B8801339AB27B6803F5FA5361
:10349C0004331A807B6803F5FA5304331B88B3F5A5
:1034AC00FA5F05D97B6803F5FA53043300221A80BE
:1034BC00FB7B18461437BD4680BC704780B487B080
:1034CC0000AFF860B9601346FB800023FB822AE052
:1034DC00FB8ABA6813443B61FB6803F5FA53023369
:1034EC001B881A463B691978FB689954FB6803F5ED
:1034FC00FA5302331B8801339AB2FB6803F5FA5373
:10350C0002331A80FB6803F5FA5302331B88B3F5B8
:10351C00FA5F05D9FB6803F5FA53023300221A80CF
:10352C00FB8A0133FB82FA8AFB889A42D0D300BF14
:10353C001C37BD4680BC704780B584B000AF786046
:10354C000B467B8072B67B881A4679680D48FFF76C
:10355C00B5FF0D48FFF749FF0346002B0CD0094877
:10356C00FFF77FFF0346FB73FB7B19460648FFF70B
:10357C006AFF0548FFF758FF62B600BF1037BD461B
:10358C0080BD00BFD40000200044004080B582B054
:10359C0000AF0346FB710D48FFF706FF00BF0B4859
:1035AC00FFF723FF0346002BF9D0FB791946074898
:1035BC00FFF749FF00BF0548FFF717FF0346002B35
:1035CC00F9D000BF0837BD4680BD00BF00440040A5
:1035DC0080B584B000AF0346FB711A4B1B7823F007
:1035EC000F03DAB2174B1A70164B1A78FB79134388
:1035FC00DAB2144B1A70FA7913469B0013445B0031
:10360C00114A1344BB600023FB730CE0FB7BBA68CC
:10361C0013449A780B4B5A7003210A48FFF78CFF1E
:10362C00FB7B0133FB73BB681B78FA7B9A42EDD3AF
:10363C00BB6800221A70BB6800225A7000BF10379A
:10364C00BD4680BD040000209444002080B584B0A9
:10365C0000AF0346FB71FB79F72B07D94F4AFB7977
:10366C00D37201214E48FFF767FF94E097F90730BA
:10367C00002B0ADA494AFB791370484B00229A70E6
:10368C00FB79484AD25C454B5A70444B5B78002B13
:10369C007AD0424B9B785A1CD1B2404A91701A4650
:1036AC003E4B1344FA79DA703C4B9A783B4B5B787F
:1036BC009A4270D3394B93F81A34002B59D0374BAC
:1036CC001B7803F0F003902B33D1344B5B79002B38
:1036DC0027D0324B1B7803F00F0213469B00134488
:1036EC005B00314A1344FB60FB685B785A1CD1B217
:1036FC00FA6851701946294B1A79FB680B449A7079
:10370C00FB685B78082B02D1FB6800225A70FB68BF
:10371C001B78072B05D8FB681B780133DAB2FB68E2
:10372C001A701E4B5B789BB219462048FFF704FFBA
:10373C0026E01A4B1B7803F0F003B02B11D1174B7A
:10374C001B797A2B0DD9154B1B795BB2002B08DB3F
:10375C00124B1B7803F00F03DBB21846FFF738FF50
:10376C000EE00E4B5B789BB219461048FFF7E4FE57
:10377C0006E00A4B5B789BB219460C48FFF7DCFE5F
:10378C00064B01229A7006E0044AFB79D3720121A0
:10379C000348FFF7D1FE1037BD4680BD1C2000202A
:1037AC0027200020143F0008944400201F200020F4
:1037BC0080B400AF034B93F81B341846BD4680BC55
:1037CC00704700BF1C20002080B584B000AF0346BA
:1037DC000A46FB711346BB71394B00221A80394AD9
:1037EC00FB7982F81734374B00221A70354B0022C4
:1037FC0083F81824334B00229A70324B00225A70F3
:10380C00BB79002B14BF01230023DBB21A462D4BCE
:10381C0083F81A242B4B012283F81B242A4800F02E
:10382C00F7F872B60023FB7308E0FB7B274AD35CE6
:10383C001846FFF7ABFEFB7B0133FB73FB7B1D2BA9
:10384C00F3D9B023FB730CE0FB7B1846FFF79EFE0D
:10385C007B20FFF79BFE0020FFF798FEFB7B0133DC
:10386C00FB73FB7BBF2BEFD90023FB7315E0FA7BBB
:10387C00174913469B0013445B000B4400221A703B
:10388C00FA7B134913469B0013445B000B44013332
:10389C0000221A70FB7B0133FB73FB7B0F2BE6D9E9
:1038AC0000BF0C48FFF78FFD0346002BF9D00948E9
:1038BC00FFF7ADFD62B600BF1037BD4680BD00BF3F
:1038CC00904400201C200020D4000020144000084C
:1038DC00944400200044004080B582B000AF034601
:1038EC000A46FB711346BB80BB88002B10D1FB79B9
:1038FC00012B07D0022B08D0002B00D009E00123AC
:10390C00BB8006E0FFF75AFC03E0FFF7FFFB00E08B
:10391C0000BFFB790349BA8821F8132000BF083790
:10392C00BD4680BD3824002080B483B000AF034670
:10393C00FB71FB79044A002122F8131000BF0C37ED
:10394C00BD4680BC704700BF3824002080B582B0D3
:10395C0000AF0023FB7106E0FB791846FFF7E4FF8C
:10396C00FB790133FB71FB79022BF5D900BF0837CA
:10397C00BD4680BD80B584B000AF0346FB71FB79BA
:10398C00002B02D00120FEF72FFB1F4B1B88002BB6
:10399C0005D01D4B1B88013B9AB21B4B1A80002390
:1039AC00FB7329E0FB7B194A32F81330002B1FD034
:1039BC00FB7B164A32F81320013A91B2134A22F8D3
:1039CC001310FB7B114A32F81330002B10D1FB7B08
:1039DC00012B07D0022B08D0002B00D009E0FFF7F9
:1039EC00C5FA06E0FFF7EAFB03E0FFF78FFB00E008
:1039FC0000BFFB7B0133FB73FB7B022BD2D900BFD7
:103A0C001037BD4680BD00BF9044002038240020F4
:103A1C0080B483B000AF78607B6803F5FA5302334F
:103A2C0000221A807B6803F5FA53043300221A80B3
:103A3C007B6800221A7000BF0C37BD4680BC7047F3
:103A4C0080B483B000AF78607B681B6803F08003A0
:103A5C00802B0CBF01230023DBB218460C37BD466C
:103A6C0080BC704780B483B000AF78607B68DB6843
:103A7C0043F080027B68DA6000BF0C37BD4680BC27
:103A8C00704780B483B000AF78600B46FB70FA7857
:103A9C007B685A6000BF0C37BD4680BC704780B451
:103AAC0085B000AF78607B6803F5FA5304331B884C
:103ABC001A467B689B5CFB737B6803F5FA530433F3
:103ACC001B8801339AB27B6803F5FA5304331A80CE
:103ADC007B6803F5FA5304331B88B3F5FA5F05D9F9
:103AEC007B6803F5FA53043300221A80FB7B1846DB
:103AFC001437BD4680BC704780B483B000AF78608B
:103B0C000B46FB707B6803F5FA5302331B8819468E
:103B1C007B68FA785A547B6803F5FA5302331B8896
:103B2C0001339AB27B6803F5FA5302331A807B682F
:103B3C0003F5FA5302331B88B3F5FA5F05D97B689A
:103B4C0003F5FA53023300221A8000BF0C37BD462E
:103B5C0080BC704780B485B000AF0346FB71144B3A
:103B6C001B78FF2B01D1FB791DE0124B1B78002B2E
:103B7C0007D10F4B1B78FA79934228BF1346DBB25F
:103B8C0011E0FB799BB20A4A127892B202FB03F362
:103B9C00FB81FB891B0AFB81FB89FF2B01D9FF23CE
:103BAC00FB81FB89DBB218461437BD4680BC7047DD
:103BBC00354500203946002080B582B000AF034661
:103BCC00FB71FB7919460C48FFF796FF0B48FFF782
:103BDC0037FF0346002B0AD00748FFF760FF034668
:103BEC0019460648FFF74DFF0448FFF73BFF00BF9F
:103BFC000837BD4680BD00BF442500200038014079
:103C0C0080B582B000AF0346FB71904B1B78194610
:103C1C008F4AFB7953548F4B1B78DBB2FF2B03D1AC
:103C2C008A4B00221A7005E0884B1B780133DAB2FC
:103C3C00864B1A70884B1B78092B00F2F78001A277
:103C4C0052F823F0973C0008233D0008FF3C000885
:103C5C00073D0008F73D0008E93D00083F3D00081E
:103C6C00733D00088D3D0008793C00087B4B1B78A8
:103C7C00013BDAB2794B1A70784B1B78002B40F071
:103C8C00D280754B00221A70CDE0FB7903F0F00363
:103C9C00B02B07D0F02B09D0902B16D16E4B0222F3
:103CAC001A70C3E06C4B01221A70BFE0FB79F02B49
:103CBC0003D1694B06221A70C1E0FB79F72B40F057
:103CCC00BE80654B00221A70B9E0FB79644AD35C64
:103CDC00002B03D1604B00221A7009E0FB79604A7B
:103CEC00D35C013BDAB25D4B1A705B4B09221A7044
:103CFC0000BF594B03221A7098E05A4B1B78022BC9
:103D0C0005D1FB791846FFF725FF0346FB71524B93
:103D1C0000221A708AE0FB790B2B03D14E4B032245
:103D2C001A7083E04D4B01221A704B4B09221A700A
:103D3C007CE04E22FB79934203D1474B07221A7049
:103D4C0080E0454B04221A70F020FEF769FCFB79E9
:103D5C001846FEF765FCF020FFF72EFFFB7918469E
:103D6C00FFF72AFF6EE0404B00221A703F4B0022F7
:103D7C001A703F4AFB791370374B08221A7055E0C2
:103D8C003B4B1B78012B14D0022B1CD0002B00D0EA
:103D9C0058E0FB791B01DAB2344B1B781344DAB2CE
:103DAC00324B1A70FB7903F00F03DAB22E4B1A70F8
:103DBC0013E0FB7903F00F03DAB22A4B1A70264B8F
:103DCC0005221A7009E0FB7903F00F03DAB2294BD4
:103DDC001A70214B05221A7000BF33E0FB79F72BC8
:103DEC002FD11D4B00221A702BE01A4B1B78DBB223
:103DFC001946214AFB795354164B1B78DBB2FF2B27
:103E0C0003D1144B00221A7006E0124B1B78DBB264
:103E1C000133DAB20F4B1A70FB79F72B05D10E4B2D
:103E2C0000221A7001E000BF00E000BFFB791846C9
:103E3C00FEF7F6FBFB791846FFF7BEFE02E000BF6B
:103E4C0000E000BF0837BD4680BD00BF4025002004
:103E5C00402400208A4400203E2400203F240020DF
:103E6C00143F00083445002038460020354500201A
:103E7C00364500203946002038450020002103E05B
:103E8C000B4B5B58435004310A480B4B42189A4277
:103E9C00F6D30A4A02E0002342F8043B084B9A424C
:103EAC00F9D3FDF78DFBFCF76FF9FCF735FD704787
:103EBC003C40000800000020080000200800002002
:103ECC003C460020FEE70000F8B500BFF8BC08BC7B
:103EDC009E467047F8B500BFF8BC08BC9E467047BC
:103EEC000001FF00FF000001010000FF00FF0100C6
:103EFC00000000000000000001020304060708098E
:103F0C00000000000102030400000000000000009B
:103F1C000000000000000000000000000000000095
:103F2C000000000000000000000000000000000085
:103F3C000000000000000000000000000000000075
:103F4C000000000000000000000000000000000065
:103F5C000000000000000000000000000000000055
:103F6C000000000000000000000000000000000045
:103F7C000000000000000000000000000000000035
:103F8C00000000000000000003030303030303030D
:103F9C0003030303030303030303030303030303E5
:103FAC0003030303030303030303030303030303D5
:103FBC0003030303030303030303030303030303C5
:103FCC0003030303030303030202020202020202BD
:103FDC0002020202020202020202020202020202B5
:103FEC00020202020202020203030303030303039D
:103FFC000303030303030303000203020000010095
:10400C000100010101000100F04110161220000016
:10401C0020202A2A2A20486172644D5055202A2AD1
:08402C002A20202013F70000F8
:04403400750100080A
:044038004D0100082E
:08403C0000A24A04800000000C
:0400000508003E8928
:00000001FF
