:020000040800F2
:100000000050002015400008251300083113000897
:10001000371300083D1300084313000800000000D8
:10002000000000000000000000000000491300086C
:100030005513000800000000611300086D1300084C
:100040005D4000085D4000085D4000085D4000081C
:100050005D4000085D4000085D4000085D4000080C
:100060005D4000085D4000085D4000085D400008FC
:100070005D4000085D4000085D4000085D400008EC
:100080005D4000085D4000085D4000085D400008DC
:100090005D4000085D4000085D40000879130008DD
:1000A0005D4000085D4000085D4000085D400008BC
:1000B000C91300085D400008E91300085D4000080E
:1000C0005D4000085D4000085D4000085D4000089C
:1000D0005D400008951400082D1500085D400008DB
:1000E0005D4000085D4000085D4000080000000021
:1000F0000000000000000000000000000000000000
:0C01000000000000000000005FF808F1A3
:10010C000348044B834202D0034B03B1184770479A
:10011C0008000020080000200000000005480649E7
:10012C00091A891001EBD171491002D0034B03B1AC
:10013C00184770470800002008000020000000004D
:10014C0010B5064C237843B9FFF7DAFF044B13B113
:10015C000448AFF300800123237010BD0800002079
:10016C00000000006040000808B5044B1BB10449B6
:10017C000448AFF30080BDE80840CFE70000000062
:10018C000C0000206040000870B50D4E0D4D761B24
:10019C00B61006D00024013455F8043B9847A6420B
:1001AC00F9D1094E094D03F055FF761BB61006D058
:1001BC000024013455F8043B9847A642F9D170BD90
:1001CC00C0410008C0410008C4410008C0410008FB
:1001DC0080B485B000AF78607B6803F00703FB60E8
:1001EC000C4BDB68BB60BA684FF6FF031340BB6077
:1001FC00FB681A02BB68134343F0BF6343F400333C
:10020C00BB60044ABB68D36000BF1437BD4680BCDA
:10021C00704700BF00ED00E080B400AF044BDB681A
:10022C001B0A03F007031846BD4680BC704700BF8D
:10023C0000ED00E080B483B000AF0346FB71FB79A6
:10024C0003F01F02064997F907305B09012000FAF9
:10025C0002F241F8232000BF0C37BD4680BC70472A
:10026C0000E100E080B483B000AF0346FB71FB7982
:10027C0003F01F02074997F907305B09012000FAC8
:10028C0002F2203341F8232000BF0C37BD4680BC5E
:10029C00704700BF00E100E080B483B000AF0346BC
:1002AC00FB71FB7903F01F02074997F907305B09D3
:1002BC00012000FA02F2603341F8232000BF0C3712
:1002CC00BD4680BC704700BF00E100E080B483B045
:1002DC0000AF03463960FB7197F90730002B0BDA3E
:1002EC003B68DAB20C49FB7903F00F03043B1201B3
:1002FC00D2B20B441A7609E03B68DAB2074997F997
:10030C0007301201D2B20B4483F8002300BF0C3724
:10031C00BD4680BC704700BF00ED00E000E100E08E
:10032C0080B489B000AFF860B9607A60FB6803F004
:10033C000703FB61FB69C3F10703042B28BF0423EC
:10034C00BB61FB690433062B02D9FB69033B00E05C
:10035C0000237B614FF0FF32BB6902FA03F3DA43EF
:10036C00BB681A407B699A404FF0FF317B6901FAF8
:10037C0003F3D9437B680B40134318462437BD461F
:10038C0080BC704780B400AF044B1B68034A43F039
:10039C000103136000BFBD4680BC704700100240D3
:1003AC0080B400AF064B1B6803F00203022B0CBF9A
:1003BC0001230023DBB21846BD4680BC704700BF4A
:1003CC000010024080B483B000AF7860064B1B680D
:1003DC0023F0F8027B68DB00034913430B6000BF7A
:1003EC000C37BD4680BC70470010024080B483B00F
:1003FC0000AF7860064B5B6823F0030204497B680E
:10040C0013434B6000BF0C37BD4680BC704700BF28
:10041C000010024080B400AF034B5B6803F00C0388
:10042C001846BD4680BC70470010024080B483B0B3
:10043C0000AF7860064B5B6823F0F00204497B68E0
:10044C0013434B6000BF0C37BD4680BC704700BFE8
:10045C000010024080B483B000AF7860064B5B683C
:10046C0023F4E06204497B6813434B6000BF0C37F4
:10047C00BD4680BC704700BF0010024080B483B002
:10048C0000AF7860064B5B6823F4605204497B68CC
:10049C0013434B6000BF0C37BD4680BC704700BF98
:1004AC000010024080B400AF044B1B68034A43F0B9
:1004BC008073136000BFBD4680BC704700100240C3
:1004CC0080B400AF064B1B6803F00073B3F1007FE0
:1004DC000CBF01230023DBB21846BD4680BC70471D
:1004EC000010024080B483B000AF78603960084BD4
:1004FC005B6823F47C127B6803F440313B680B434C
:10050C00034913434B6000BF0C37BD4680BC70479A
:10051C000010024080B485B000AF7860084BDA69F7
:10052C0007497B681343CB61054BDA697B68134041
:10053C00FB60FB6800BF1437BD4680BC704700BF32
:10054C000010024080B485B000AF7860084B9A6907
:10055C0007497B6813438B61054B9A697B68134091
:10056C00FB60FB6800BF1437BD4680BC704700BF02
:10057C000010024080B483B000AF7860064B1B685B
:10058C0023F0070204497B6813430B6000BF0C3750
:10059C00BD4680BC704700BF0020024080B400AF55
:1005AC00034B1B6803F007031846BD4680BC70471D
:1005BC000020024080B483B000AF78607B68042BCD
:1005CC0006D1094B1B68084A43F00403136005E08D
:1005DC00054B1B68044A23F00403136000BF0C375F
:1005EC00BD4680BC704700BF10E000E080B483B013
:1005FC0000AF78607B681B6843F001027B681A606F
:10060C0000BF0C37BD4680BC704780B483B000AFD0
:10061C0078607B681B6843F080027B681A6000BFBF
:10062C000C37BD4680BC704780B483B000AF786097
:10063C0039607B689B6823F4804323F007033A6896
:10064C001A437B689A6000BF0C37BD4680BC70476C
:10065C0080B483B000AF786039607B685B6823F04E
:10066C0070023B681A437B685A6000BF0C37BD466A
:10067C0080BC704780B483B000AF78607B689B68A7
:10068C0023F080027B689A6000BF0C37BD4680BCAB
:10069C00704780B483B000AF78607B686FF0010264
:1006AC001A6100BF0C37BD4680BC704780B483B064
:1006BC0000AF78607B68DB6843F001027B68DA602E
:1006CC0000BF0C37BD4680BC704780B483B000AF10
:1006DC0078607B68DB6843F400527B68DA6000BFAB
:1006EC000C37BD4680BC704780B483B000AF7860D7
:1006FC007B681B6923F490427B681A617B685B6999
:10070C0023F02A027B685A6100BF0C37BD4680BCBF
:10071C00704780B483B000AF78607B681B6923F4AA
:10072C0090427B681A617B685B6923F022027B68CC
:10073C005A617B685B6943F008027B685A6100BFB1
:10074C000C37BD4680BC704780B483B000AF786076
:10075C007B686FF040021A6000BF0C37BD4680BC4E
:10076C00704780B483B000AF78607B68DB6843F07F
:10077C0020027B68DA6000BF0C37BD4680BC704736
:10078C0080B483B000AF78607B68DB6843F04002D4
:10079C007B68DA6000BF0C37BD4680BC704780B404
:1007AC0083B000AF78607B68DB6823F080027B68E5
:1007BC00DA6000BF0C37BD4680BC704790B488B07F
:1007CC0000AFF860B9607A60FB681A46BB681B0E14
:1007DC0013441C462268BB687B617B6993FAA3F3C4
:1007EC003B613B69B3FA83F39B000F2101FA03F3DE
:1007FC00DB431A40BB68FB61FB6993FAA3F3BB6153
:10080C00BB69B3FA83F39B00796801FA03F31343D2
:10081C00236000BF2037BD4690BC704780B483B0C6
:10082C0000AF786039607B689B68DA433B681B0AD1
:10083C0013409BB2002B0CBF01230023DBB21846E4
:10084C000C37BD4680BC704780B483B000AF786075
:10085C0039603B681B0A9AB27B681A6100BF0C377F
:10086C00BD4680BC704780B483B000AF78603960FF
:10087C003B681B0A9AB27B685A6100BF0C37BD46B5
:10088C0080BC704780B400AF064B5B68054A23F010
:10089C00E0635360034B034A5B68536000BFBD4683
:1008AC0080BC70470000014080B485B000AF786018
:1008BC003960114A3B68DBB2023352F823203B68A3
:1008CC001B0CDB4302EA03013B681B0CFB60FB685F
:1008DC0093FAA3F3BB60BB68B3FA83F37A689A40CC
:1008EC0005483B68DBB20A43023340F8232000BFC3
:1008FC001437BD4680BC70470000014098B500AF6E
:10090C000120FFF71FFE4FF08050FFF703FE03207E
:10091C00FFF75EFCFFF7B6FF00F096F800F01CFA4C
:10092C0000F06CF900F0C0F900F0F6F800F026F9D0
:10093C0000F0CEF83B4B02221A703B4B01221A708E
:10094C003A4BFF221A7044F240013948FFF766FF18
:10095C000346002B14BF01230023DBB21C4642F2DA
:10096C0020013348FFF75AFF0346002B01D0022326
:10097C0000E0002323441A462E4B1A6042F2200159
:10098C002D48FFF770FF41F210012B48FFF76BFF6A
:10099C0040F608012848FFF766FF4FF47A7001F023
:1009AC000FFB40F608012448FFF74EFF2520FFF708
:1009BC0059FC2620FFF756FC02F086FD1F48FFF776
:1009CC00C3FE1F48FFF7C0FE1C48FFF7E8FE1C489B
:1009DC00FFF7E5FE2520FFF75FFC2620FFF75CFC08
:1009EC002520FFF727FC2620FFF724FC1348FFF7F0
:1009FC00B8FE1248FFF7C4FE1148FFF7C1FE4FF0D6
:100A0C008040FFF746FE0F48FFF743FE4FF0804053
:100A1C00FFF74CFE0B48FFF749FE4FF08040FFF705
:100A2C00E5FDFEE7504400205545002051440020D0
:100A3C00000C0140A8430020000801400038014090
:100A4C00004400400008004080B500AF0120FFF7D3
:100A5C0091FDFFF7A3FD0346012B01D000F02CFA0A
:100A6C001020FFF7AFFCFFF78DFC00BFFFF798FCE1
:100A7C000346012BFAD14FF400110020FFF732FD91
:100A8C00FFF710FD00BFFFF71BFD0346012BFAD14A
:100A9C000020FFF7CBFC4FF48060FFF7DBFC00205D
:100AAC00FFF7ECFC0220FFF7A1FC00BFFFF7B2FC44
:100ABC000346082BFAD1054801F074FA0420FFF71D
:100ACC0079FD024801F0A0FA00BF80BD005A620215
:100ADC0080B500AFFFF7A0FB0346002201211846AA
:100AEC00FFF71EFC034619462520FFF7EFFB2520D8
:100AFC00FFF7A0FBFFF790FB0346002203211846EB
:100B0C00FFF70EFC034619461C20FFF7DFFB1C20E9
:100B1C00FFF790FB00BF80BD80B586B000AF3B1DDA
:100B2C0000221A605A609A60DA601A610120FFF79D
:100B3C00F1FC0923BB800023BB6040F2E733FB6070
:100B4C0000233B613B1D19464FF0804000F0ACFF89
:100B5C004FF08040FFF759FD00214FF08040FFF728
:100B6C0063FD00214FF08040FFF772FD4FF0804095
:100B7C00FFF780FD00BF1837BD4680BD80B586B03D
:100B8C0000AF3B1D00221A605A609A60DA601A614D
:100B9C000420FFF7BFFCFFF73FFB034600220521B3
:100BAC001846FFF7BDFB034619461E20FFF78EFBC8
:100BBC001E20FFF73FFB40F69F73BB800023BB60FA
:100BCC000623FB6000233B613B1D19460A4800F0DD
:100BDC006BFF0948FFF719FD00210748FFF724FDBB
:100BEC0000210548FFF734FD0348FFF743FD00BF24
:100BFC001837BD4680BD00BF0008004080B58CB0E2
:100C0C0000AF07F1180300221A605A609A60DA608C
:100C1C001A615A613B1D00221A605A609A60DA60B0
:100C2C001A614FF48040FFF78DFC0420FFF78AFC1B
:100C3C00194B7B600923BB600323FB6000233B61E2
:100C4C003B1D1946154800F08CFD154B7B600423A9
:100C5C00BB603B1D1946114800F083FD47F612237B
:100C6C00BB610023FB6100233B6200237B620C23EE
:100C7C00BB620023FB6207F118031946094801F017
:100C8C0009F80848FFF730FD0648FFF71EFD00BFC6
:100C9C003037BD4680BD00BF020002040008014091
:100CAC00040004040038014080B58CB000AF07F19B
:100CBC00180300221A605A609A60DA601A615A614D
:100CCC003B1D00221A605A609A60DA601A614FF478
:100CDC000030FFF71FFC0420FFF734FC40F2044304
:100CEC007B600923BB600323FB6004233B613B1D3A
:100CFC001946174800F035FDFFF78EFA034600221F
:100D0C0002211846FFF70CFB034619462620FFF775
:100D1C00DDFA2620FFF78EFA47F61223BB6100237B
:100D2C00FB6100233B6200237B620823BB6207F15B
:100D3C0018031946074800F0ADFF0648FFF7E9FC19
:100D4C000448FFF7C2FC00BF3037BD4680BD00BF72
:100D5C00000801400044004080B588B000AF07F1A6
:100D6C00180300221A605A603B1D00221A605A6058
:100D7C009A60DA601A611020FFF7E4FB2020FFF77D
:100D8C00E1FB0420FFF7DEFB0820FFF7DBFB43F65B
:100D9C0038014048FFF767FD3F494048FFF763FDC6
:100DAC003F4B7B600023BB603B1D19463D4800F068
:100DBC00D8FC3D4B7B600023BB603B1D194635487E
:100DCC0000F0CFFC43F638037B600123BB600223A9
:100DDC00FB6004233B613B1D19462E4800F0C1FC0F
:100DEC002D4B7B600123BB600223FB6000233B6126
:100DFC0000237B613B1D1946284800F0B2FC2B4BAD
:100E0C007B600023BB603B1D1946244800F0A9FC05
:100E1C0027490120FFF748FD26490120FFF744FD33
:100E2C002023BB6101233B7700237B770323BB7714
:100E3C0007F11803184600F085FD4023BB61012320
:100E4C003B7700237B770223BB7707F11803184607
:100E5C0000F078FD042242F220011048FFF7AEFCAE
:100E6C00042244F240010D48FFF7A8FCFFF7D4F927
:100E7C000346002204211846FFF752FA034619468E
:100E8C001720FFF723FA1720FFF7D4F900BF2037FC
:100E9C00BD4680BD000801407F077C04000C01406A
:100EAC00E000E00400100140DBC3190483808304DC
:100EBC000100F0000100000F80B400AF00BFBD4680
:100ECC0080BC704780B483B000AF0346FB71FB79E4
:100EDC0003F01F02064997F907305B09012000FA5D
:100EEC0002F241F8232000BF0C37BD4680BC70478E
:100EFC0000E100E080B483B000AF0346FB71FB79E6
:100F0C0003F01F02074997F907305B09012000FA2B
:100F1C0002F2203341F8232000BF0C37BD4680BCC1
:100F2C00704700BF00E100E080B483B000AF03461F
:100F3C00FB71FB7903F01F02074997F907305B0936
:100F4C00012000FA02F2603341F8232000BF0C3775
:100F5C00BD4680BC704700BF00E100E080B483B0A8
:100F6C0000AF7860074B5A697B6813407A689A42E5
:100F7C000CBF01230023DBB218460C37BD4680BCE6
:100F8C00704700BF0004014080B483B000AF7860AC
:100F9C00034A7B68536100BF0C37BD4680BC704769
:100FAC000004014080B483B000AF78607B681B689C
:100FBC0043F001027B681A6000BF0C37BD4680BC51
:100FCC00704780B483B000AF78607B681B6823F0F7
:100FDC0001027B681A6000BF0C37BD4680BC7047AD
:100FEC0080B483B000AF786039607B683A685A622D
:100FFC0000BF0C37BD4680BC704780B483B000AFD7
:10100C0078607B686FF001021A6100BF0C37BD4637
:10101C0080BC704780B483B000AF78607B68DB68BD
:10102C0043F001027B68DA6000BF0C37BD4680BC20
:10103C00704780B483B000AF78607B68DB6823F0C6
:10104C0001027B68DA6000BF0C37BD4680BC70477C
:10105C0080B483B000AF78607B681B6803F020031A
:10106C00202B0CBF01230023DBB218460C37BD46E6
:10107C0080BC704780B483B000AF78607B681B681D
:10108C0003F08003802B0CBF01230023DBB2184636
:10109C000C37BD4680BC704780B483B000AF78601D
:1010AC007B686FF040021A6000BF0C37BD4680BCF5
:1010BC00704780B483B000AF78607B68DB6843F026
:1010CC0080027B68DA6000BF0C37BD4680BC70477D
:1010DC0080B483B000AF78607B68DB6823F080025B
:1010EC007B68DA6000BF0C37BD4680BC704780B4AB
:1010FC0083B000AF78607B685B68DBB218460C3756
:10110C00BD4680BC704780B483B000AF78600B469E
:10111C00FB70FA787B685A6000BF0C37BD4680BC08
:10112C00704780B483B000AF786039607B689B688F
:10113C00DA433B681B0A13409BB2002B0CBF012304
:10114C000023DBB218460C37BD4680BC704780B418
:10115C0083B000AF786039603B681B0A9AB27B6839
:10116C001A6100BF0C37BD4680BC704780B483B099
:10117C0000AF786039603B681B0A9AB27B685A6191
:10118C0000BF0C37BD4680BC704780B485B000AF43
:10119C00786072B67B6803F5FA5302331B881A46E3
:1011AC007B689B5CFB737B6803F5FA5302331B88EB
:1011BC0001339AB27B6803F5FA5302331A807B68C9
:1011CC0003F5FA5302331B88B3F5FA5F05D37B683A
:1011DC0003F5FA53023300221A8062B6FB7B1846E1
:1011EC001437BD4680BC704780B584B000AF034651
:1011FC00FB71424B1B781A4697F907301344FB607E
:10120C00FB68002B01DA0023FB60FB68FF2B01DD80
:10121C00FF23FB60FB68DAB2384B1A70374B1B7834
:10122C005B09FB72FB7A002B05D040F201113448AC
:10123C00FFF78DFF04E040F201113148FFF796FFF4
:10124C00FB7A012B05D940F202212D48FFF77FFFD5
:10125C0004E040F202212A48FFF788FFFB7A022BB8
:10126C0005D940F204412648FFF771FF04E040F233
:10127C0004412348FFF77AFFFB7A032B04D9214959
:10128C001F48FFF764FF03E01E491D48FFF76EFF80
:10129C00FB7A042B04D91C491948FFF758FF03E0CB
:1012AC0019491748FFF762FFFB7A052B04D9174938
:1012BC001348FFF74CFF03E014491148FFF756FFA2
:1012CC00FB7A062B04D912490D48FFF740FF03E0C7
:1012DC000F490B48FFF74AFF084B1B78FF2B04D133
:1012EC000C490748FFF733FF03E00A490448FFF7AE
:1012FC003DFF00BF1037BD4680BD00BF51440020EC
:10130C00000C014004000404080008041000100440
:10131C00200020044000400480B400AF00BFBD4654
:10132C0080BC704780B400AFFEE780B400AFFEE72E
:10133C0080B400AFFEE780B400AFFEE780B400AF2E
:10134C0000BFBD4680BC704780B400AF00BFBD4637
:10135C0080BC704780B400AF00BFBD4680BC7047F6
:10136C0080B400AF00BFBD4680BC704780B500AFF5
:10137C001720FFF7BFFD1E20FFF7A4FD0E48FFF757
:10138C0049FE0D48FFF70EFE2020FFF7E7FD034650
:10139C00002B02D02020FFF7F7FD4020FFF7DEFDE9
:1013AC000346002B02D04020FFF7EEFD1720FFF77D
:1013BC00BBFD00BF80BD00BF0008004080B500AF82
:1013CC0072B6002002F0ACFB4FF08040FFF715FE28
:1013DC001C20FFF7A9FD62B600BF80BD90B583B09D
:1013EC0000AF2548FFF7EDFD00212348FFF7F8FD7E
:1013FC002148FFF71EFE44F240012048FFF791FE02
:10140C000346002B14BF01230023DBB21C4642F21F
:10141C0020011A48FFF785FE0346002B01D002235A
:10142C0000E0002323447B60154B1B687A689A42CA
:10143C0014D0134B1B68DBB29B00DAB27B68DBB2B7
:10144C001344FB70FB780F4AD35CBB7097F90230E6
:10145C001846FFF7C9FE0A4A7B6813600648FFF777
:10146C00CCFD1720FFF72EFD1E20FFF75DFD00BF02
:10147C000C37BD4690BD00BF00080040000C014079
:10148C00A84300207840000880B582B000AF224805
:10149C00FFF7DEFD0346002B08D01F48FFF727FEA1
:1014AC000346FB71FB79184602F07EFC1B4B03F5DF
:1014BC00FA531A88194B03F5FA5302331B889A42D4
:1014CC001CD01548FFF7D6FD0346002B1CD0134843
:1014DC00FFF75BFE034619460F48FFF714FE0F4B50
:1014EC0003F5FA531A880D4B03F5FA5302331B8894
:1014FC009A4209D00848FFF7DCFD05E00648FFF7E3
:10150C00E7FD0548FFF7C8FD2520FFF70DFD00BFDF
:10151C000837BD4680BD00BF003801406024002064
:10152C0080B500AF72B61A4B03F5FA531A88184BF4
:10153C0003F5FA5302331B889A421CD01548FFF767
:10154C0099FD0346002B1CD01148FFF71EFE0346E5
:10155C0019461048FFF7D7FD0D4B03F5FA531A88BF
:10156C000B4B03F5FA5302331B889A4209D00948F6
:10157C00FFF79FFD05E00748FFF7AAFD0548FFF7B9
:10158C008BFD2620FFF7D0FC62B600BF80BD00BFEC
:10159C00F40000200044004080B400AF154B1B68E1
:1015AC00144A43F001031360124B5A681149124B51
:1015BC0013404B600F4B1B680E4A23F0847323F4CB
:1015CC00803313600B4B1B680A4A23F4802313608F
:1015DC00084B5B68074A23F4FE035360054B4FF43A
:1015EC001F029A60054B4FF000629A6000BFBD4627
:1015FC0080BC7047001002400000FFF800ED00E0D6
:10160C0090B488B000AFF860B9607A60FB681A4695
:10161C00BB681B0E13441C462268BB687B617B694C
:10162C0093FAA3F33B613B69B3FA83F39B000F215D
:10163C0001FA03F3DB431A40BB68FB61FB6993FAC5
:10164C00A3F3BB61BB69B3FA83F39B00796801FA1E
:10165C0003F31343236000BF2037BD4690BC704793
:10166C0090B488B000AFF860B9607A60FB681A4635
:10167C00BB681B0E13441C462268BB687B617B69EC
:10168C0093FAA3F33B613B69B3FA83F39B00032109
:10169C0001FA03F3DB431A40BB68FB61FB6993FA65
:1016AC00A3F3BB61BB69B3FA83F39B00796801FABE
:1016BC0003F31343236000BF2037BD4690BC704733
:1016CC0090B488B000AFF860B9607A60FB681A46D5
:1016DC00BB681B0E13441C462268BB687B617B698C
:1016EC0093FAA3F33B613B69B3FA83F39B000421A8
:1016FC0001FA03F3DB431A40BB68FB61FB6993FA05
:10170C00A3F3BB61BB69B3FA83F39B00796801FA5D
:10171C0003F31343236000BF2037BD4690BC7047D2
:10172C0080B487B000AFF860B9607A60FB68DA68A3
:10173C00BB681B0ADB431A40BB681B0A7B617B69D5
:10174C0093FAA3F33B613B69B3FA83F3796801FA2B
:10175C0003F31A43FB68DA6000BF1C37BD4680BC3C
:10176C00704780B588B000AF786039603B681B6803
:10177C001B021B0C7B617B693B613B6993FAA3F3F6
:10178C00FB60FB68B3FA83F3FB6140E00122FB6969
:10179C009A407B691340002B36D0FB69072B06D887
:1017AC0040F20112FB6902FA03F3BB6108E0FB692A
:1017BC00083B4FF0011202FA03F343F08063BB6164
:1017CC003B685B681A46B9697868FFF719FF3B6894
:1017DC001B691A46B9697868FFF7A2FF3B685B681A
:1017EC00012B03D03B685B68092B0DD13B689B68D0
:1017FC001A46B9697868FFF733FF3B68DB681A460D
:10180C00B9697868FFF75CFFFB690133FB617A69A2
:10181C00FB6922FA03F3002BB8D1012318462037B9
:10182C00BD4680BD80B483B000AF7860054B1A68AC
:10183C0004497B6813430B6000BF0C37BD4680BC6A
:10184C00704700BF0004014080B483B000AF7860E3
:10185C00054B1A687B68DB43034913400B6000BFE0
:10186C000C37BD4680BC70470004014080B483B087
:10187C0000AF7860054B5A6804497B6813434B6092
:10188C0000BF0C37BD4680BC704700BF0004014050
:10189C0080B483B000AF7860054B5A687B68DB433B
:1018AC00034913404B6000BF0C37BD4680BC7047EA
:1018BC000004014080B483B000AF7860054B9A6897
:1018CC0004497B6813438B6000BF0C37BD4680BC5A
:1018DC00704700BF0004014080B483B000AF786053
:1018EC00054B9A687B68DB43034913408B6000BF50
:1018FC000C37BD4680BC70470004014080B483B0F7
:10190C0000AF7860054BDA6804497B681343CB6001
:10191C0000BF0C37BD4680BC704700BF00040140BF
:10192C0080B483B000AF7860054BDA687B68DB432A
:10193C0003491340CB6000BF0C37BD4680BC7047D9
:10194C000004014080B584B000AF78600123FB73C4
:10195C007B681B79002B60D07B681B68002B67D0E1
:10196C007B685B79012B0ED0022B17D0002B20D17A
:10197C007B681B681846FFF78BFF7B681B68184653
:10198C00FFF750FF18E07B681B681846FFF75CFFF9
:10199C007B681B681846FFF769FF0DE07B681B68C6
:1019AC001846FFF73FFF7B681B681846FFF75EFF82
:1019BC0002E00023FB7300BF7B689B79002B37D0C0
:1019CC007B689B79022B0ED0032B17D0012B20D1D7
:1019DC007B681B681846FFF7A3FF7B681B681846DB
:1019EC00FFF768FF25E07B681B681846FFF774FF5C
:1019FC007B681B681846FFF781FF1AE07B681B6841
:101A0C001846FFF757FF7B681B681846FFF776FFF1
:101A1C000FE00023FB7300BF0BE07B681B681846CC
:101A2C00FFF712FF7B681B681846FFF731FF00E0D9
:101A3C0000BFFB7B18461037BD4680BD80B483B019
:101A4C0000AF786039607B683A689A6200BF0C37E7
:101A5C00BD4680BC704780B483B000AF78603960FD
:101A6C007B683A68DA6200BF0C37BD4680BC7047B1
:101A7C0080B483B000AF786039607B683A681A63D1
:101A8C0000BF0C37BD4680BC704780B483B000AF3C
:101A9C0078607B685B6943F001027B685A6100BF28
:101AAC000C37BD4680BC704780B584B000AF786001
:101ABC0039600023FB607B681B68FB607B68274AEE
:101ACC0093420BD07B68B3F1804F07D07B68244ADC
:101ADC00934203D07B68234A934206D1FB6823F0E0
:101AEC0070023B685B681343FB607B681B4A934244
:101AFC000BD07B68B3F1804F07D07B68184A9342B8
:101B0C0003D07B68174A934206D1FB6823F44072DA
:101B1C003B68DB681343FB607B68FA681A603B68C0
:101B2C009B6819467868FFF796FF3B681B88194637
:101B3C007868FFF783FF7B68084A934205D13B68BE
:101B4C001B7C19467868FFF793FF7868FFF79DFFB9
:101B5C00012318461037BD4680BD00BF002C014044
:101B6C00000400400008004080B483B000AF7860EF
:101B7C007B68DB6803F40053B3F5005F0CBF0123F3
:101B8C000023DBB218460C37BD4680BC704780B4CE
:101B9C0083B000AF786039607B681B6923F44052D6
:101BAC003B681A437B681A6100BF0C37BD4680BC8A
:101BBC00704780B483B000AF786039607B685B6934
:101BCC0023F440723B681A437B685A6100BF0C37A0
:101BDC00BD4680BC7047000080B485B000AFF86093
:101BEC00B9607A60BA6813469B0013449A001A4491
:101BFC007B689B00B2FBF3F3254AA2FB03235B0932
:101C0C009BB21B0199B2BA6813469B0013449A000D
:101C1C001A447B689B00B2FBF3F21D4BA3FB02033F
:101C2C005B09642000FB03F3D31A1B013233184AFF
:101C3C00A2FB03235B099BB203F0F0039BB20B44A2
:101C4C0099B2BA6813469B0013449A001A447B68F5
:101C5C009B00B2FBF3F20E4BA3FB02035B09642067
:101C6C0000FB03F3D31A1B013233094AA2FB0323F3
:101C7C005B099BB203F00F039BB20B449BB21A4659
:101C8C00FB689A6000BF1437BD4680BC704700BF2C
:101C9C001F85EB5180B588B000AF786039600023A8
:101CAC00FB770023BB617868FFF75EFF0346002BD0
:101CBC0045D17B68DB6823F4B05323F00C033A68FE
:101CCC0051683A68D26811433A6812690A431A4358
:101CDC007B68DA603B689B6819467868FFF757FFAA
:101CEC003B685B6919467868FFF763FF07F10803E7
:101CFC00184600F085F87B68134A934202D17B6941
:101D0C00BB610CE07B68114A934202D13B69BB6119
:101D1C0005E07B680E4A934201D13B69BB61BB690C
:101D2C00002B0CD03B681B68002B08D00123FB77E1
:101D3C003B681B681A46B9697868FFF74DFFFB7F53
:101D4C0018462037BD4680BD003801400044004095
:101D5C000048004080B400AF034B5B6803F00C03F9
:101D6C001846BD4680BC70470010024080B400AFDE
:101D7C00034B5B6803F0F0031846BD4680BC70470C
:101D8C000010024080B400AF034B5B6803F4E063C7
:101D9C001846BD4680BC70470010024080B400AFAE
:101DAC00034B5B6803F460531846BD4680BC704718
:101DBC000010024080B400AF034B5B6803F4803327
:101DCC001846BD4680BC70470010024080B400AF7E
:101DDC00034B5B6803F470131846BD4680BC704718
:101DEC000010024080B400AF044B5B685B0C03F046
:101DFC0001031846BD4680BC704700BF001002406E
:101E0C0080B582B000AF786000F020F802467B68A5
:101E1C001A607B681B68184600F03CF802467B6829
:101E2C005A607B685B68184600F04AF802467B688B
:101E3C009A607B685B68184600F056F802467B682F
:101E4C00DA6000BF0837BD4680BD000080B582B0A7
:101E5C0000AF00237B60FFF77DFF0346042B06D009
:101E6C00082B07D0002B09D1084B7B6009E0084BED
:101E7C007B6006E000F04CF8786002E0034B7B607E
:101E8C0000BF7B6818460837BD4680BD00127A003B
:101E9C000024F40080B582B000AF7860FFF766FFD5
:101EAC0003461B0903F00F03044AD35C1A467B68F4
:101EBC00D34018460837BD4680BD00BF8840000897
:101ECC0080B582B000AF7860FFF75CFF03461B0A59
:101EDC00044AD35C1A467B68D34018460837BD4683
:101EEC0080BD00BF9840000880B582B000AF78601C
:101EFC00FFF754FF0346DB0A044AD35C1A467B689F
:101F0C00D34018460837BD4680BD00BF9840000836
:101F1C0080B582B000AF00237B6000233B60FFF7ED
:101F2C0049FF38603B68002B03D0B3F5803F03D0EA
:101F3C000BE00D4B7B600BE0FFF754FF03460133C6
:101F4C000A4AB2FBF3F37B6002E0074B7B6000BFF5
:101F5C00FFF73CFF03469B0C02337A6802FB03F34A
:101F6C0018460837BD4680BD00093D000024F4002A
:101F7C0080B483B000AF786039607A683B68B2FB9C
:101F8C00F3F3074A013B5360054B00229A60044B64
:101F9C0005221A6000BF0C37BD4680BC704700BFDD
:101FAC0010E000E080B582B000AF78604FF47A7139
:101FBC007868FFF7DDFF00BF0837BD4680BD000025
:101FCC0080B485B000AF78600E4B1B68FB60FB687B
:101FDC007B68B3F1FF3F0CD07B6801337B6008E07A
:101FEC00084B1B6803F48033002B02D07B68013B49
:101FFC007B607B68002BF3D100BF1437BD4680BCDF
:10200C00704700BF10E000E080B483B000AF786090
:10201C00034A7B68136000BF0C37BD4680BC704719
:10202C000000002080B485B000AF0346FB71244B48
:10203C0093F8A730002B04D0214B002283F8A72063
:10204C0039E01F4B93F82430002B07D11C4B1B7825
:10205C00002B03D01A4B012283F8AE20184B93F8B7
:10206C0024301F2B27D8164B93F82420144B93F8AD
:10207C0023301344FB73124B93F823301F2B07D9D7
:10208C000F4B93F82330203BDAB20D4B83F823200F
:10209C00FB7B1F2B02D9FB7B203BFB73084B93F87C
:1020AC0024300133DAB2064B83F82420FB7B044A3C
:1020BC001344FA79DA701437BD4680BC704700BF00
:1020CC002400002080B400AF054B002283F82420AC
:1020DC00034B002283F8232000BFBD4680BC704711
:1020EC002400002080B584B000AF0346FB715E4B2A
:1020FC0093F8A930002B19D05B4BB3F8B430002BFC
:10210C0005D1FB793F2B0AD0FB79FF2B07D0FB794C
:10211C009BB201339AB2544BA3F8B42029E30120AB
:10212C0001F0D8FC504B002283F8A920FB792F2B0F
:10213C0054D8FB7903F00303022B07D0032B09D0EF
:10214C00012B0BD1FC2001F057FB07E0FA2001F02A
:10215C0053FB03E0FB2001F04FFB00BFFB7903F0C6
:10216C000C03042B02D0082B1BD0FFE2002001F043
:10217C00B1FC3D4B002283F8A820B023FB730CE08C
:10218C00FB7B184601F038FB7B2001F035FB00206F
:10219C0001F032FBFB7B0133FB73FB7BBE2BEFD9D6
:1021AC00E4E2314B012283F8A820002001F092FCDC
:1021BC002D4B93F8C2301A462B4B93F8C03003FBCF
:1021CC0002F34EF2902292FBF3F39BB219460020DD
:1021DC0001F058FCFFF776FF00BFC7E2FB799F2B9D
:1021EC0021D9FB79A72B1ED81F4B93F8B7301A4671
:1021FC00FB7903F0070342FA03F303F00103002B0E
:10220C0000F0B482FB7903F0070217491346DB0098
:10221C009B1A5B000B442633B3F90030DBB2184633
:10222C00FFF700FFA2E2FB79CF2B1FD9FB79D72B4D
:10223C001CD80D4B93F8BE200B4B83F8BF20FB79B9
:10224C0003F00703DAB2084B83F8BE20064B0122D9
:10225C0083F8AA20044B002283F8AB20024B012206
:10226C0083F8AC2082E200BF24000020FB793F3BC6
:10227C00C02B00F2788201A252F823F06B270008E1
:10228C0073270008732700087327000873270008BA
:10229C0073270008732700087327000873270008AA
:1022AC00732700087327000873270008732700089A
:1022BC00732700087327000873270008732700088A
:1022CC00732700087327000873270008732700087A
:1022DC00732700087327000873270008732700086A
:1022EC00732700087327000873270008732700085A
:1022FC00732700087327000873270008732700084A
:10230C007327000873270008732700087327000839
:10231C007327000873270008732700087327000829
:10232C007327000873270008732700087327000819
:10233C007327000873270008732700087327000809
:10234C0073270008732700087327000873270008F9
:10235C0073270008732700087327000873270008E9
:10236C0073270008732700087327000873270008D9
:10237C0073270008732700087327000873270008C9
:10238C0073270008732700087327000873270008B9
:10239C0073270008732700087327000873270008A9
:1023AC007327000873270008732700087327000899
:1023BC007327000873270008A7250008B12500081B
:1023CC007327000873270008732700087327000879
:1023DC00BB250008C52500087327000873270008D3
:1023EC007327000873270008732700087327000859
:1023FC007327000873270008732700087327000849
:10240C007327000873270008732700087327000838
:10241C007327000873270008732700087327000828
:10242C00732700087327000873270008212600086B
:10243C002F26000857260008652600087726000876
:10244C00732700088B2600087327000873270008E1
:10245C0073270008732700087327000873270008E8
:10246C009526000895260008732700087327000896
:10247C0073270008732700087327000873270008C8
:10248C007327000873270008CF250008D9250008FA
:10249C00E3250008ED250008F725000801260008B3
:1024AC000B26000873270008732700087327000801
:1024BC007327000873270008732700087327000888
:1024CC007327000873270008732700087327000878
:1024DC007327000873270008732700087327000868
:1024EC007327000873270008732700087327000858
:1024FC007327000873270008732700088D25000830
:10250C001526000815260008152600087327000854
:10251C001526000873270008152600081526000844
:10252C007327000873270008732700087327000817
:10253C001526000815260008152600081526000883
:10254C0073270008732700087327000873270008F7
:10255C0073270008732700087327000873270008E7
:10256C0073270008732700087327000873270008D7
:10257C007327000873270008412700084D2700081F
:10258C007D4B002283F8AA207B4B012283F8AB20E1
:10259C00794B012283F8AC20E8E0774B002283F8DA
:1025AC00A620E3E0744B012283F8A620DEE0724BF8
:1025BC00002283F8C920D9E06F4B012283F8C9208F
:1025CC00D4E06D4B0C2283F8C020CFE06A4B122272
:1025DC0083F8C020CAE0684B182283F8C020C5E0FD
:1025EC00654B1E2283F8C020C0E0634B242283F885
:1025FC00C020BBE0604B2A2283F8C020B6E05E4BC3
:10260C00302283F8C020B1E0FB799AB25A4BA3F880
:10261C00B220ABE0FE20FFF705FD0020FFF702FD26
:10262C00A7E0554B5B7803F02003002B06D0152058
:10263C00FFF7F8FCFE20FFF7F5FC9AE0FE20FFF711
:10264C00F1FC1520FFF7EEFC93E0FE20FFF7EAFC0F
:10265C000120FFF7E7FC8CE0FE20FFF7E3FC464B84
:10266C005B781846FFF7DEFC83E0FE20FFF7DAFC10
:10267C00414B93F8C2301846FFF7D4FC79E03E4B3F
:10268C00282283F8C42071E0B023FB730CE0FB7BA1
:10269C00184601F0B1F87B2001F0AEF8002001F0F3
:1026AC00ABF8FB7B0133FB73FB7BBE2BEFD9002319
:1026BC00FB7316E0FA7B30491346DB009B1A5B0078
:1026CC000B44263300221A80FA7B2B491346DB007D
:1026DC009B1A5B000B44333300221A70FB7B0133D3
:1026EC00FB73FB7B072BE5D9234B0022A3F8962029
:1026FC00214B002283F8A3201F4B93F8A6201E4BDE
:10270C0083F8A4201C4B93F8A430002B03D11A4B54
:10271C00002283F8A520184B93F8B620164B83F8AB
:10272C00B820154B0022A3F8BC20134B012283F8D0
:10273C00AE201BE0FB799AB20F4BA3F8B22015E048
:10274C006C21012001F09EF90B4B012283F8A9208A
:10275C0000F008FE084B9B78002B06D109E0064BD5
:10276C0000229A7002E000BF00E000BFFE20FFF7DD
:10277C0059FC1037BD4680BD2400002080B582B0C6
:10278C0000AF0346FB71B44B9B78002B04D1FB7953
:10279C00184601F031F881E3AF4BB3F8B230EC2BB3
:1027AC002FD0EC2B0BDCE02B12D0E02B02DC002B1F
:1027BC007DD077E0E12B14D0E72B17D072E0EE2B15
:1027CC0031D0EE2B26DBEF2B45D0FE2B5DD069E014
:1027DC00A14B0022A3F8B2209F4AFB7982F8C230A9
:1027EC005CE39D4B0022A3F8B22057E39A4B0022E6
:1027FC00A3F8B220FB799B08DAB2974B83F8C72079
:10280C004CE3954B0022A3F8B220934AFB7982F853
:10281C00B63043E3904B0022A3F8B2208E4AFB79EA
:10282C0082F8B7303AE38C4B0022A3F8B2208A4BE3
:10283C00B3F8BA3023F0FF039AB2874BA3F8BA204F
:10284C00854BB3F8BA20FB799BB213439AB2824BF7
:10285C00A3F8BA2022E3804B0022A3F8B2207E4BCF
:10286C00B3F8BA30DBB29AB27B4BA3F8BA207A4BEE
:10287C00B3F8BA301AB2FB791B021BB213431BB26A
:10288C009AB2754BA3F8BA2008E3734B0022A3F855
:10289C00B220714AFB79537000F016FEFE20FFF750
:1028AC00C1FBFBE26C4B0022A3F8B220F6E200BFA6
:1028BC00694B93F8AA30002B00F08C80664B93F890
:1028CC00AC30002B63D0644B002283F8AC20634BFC
:1028DC0000221A70FB7903F0F003B02B25D0B02B3B
:1028EC0006DC902B21D0A02B1FD0802B1DD038E0E4
:1028FC00D02B09D0D02B02DCC02B05D031E0E02B43
:10290C0013D0F02B22D02CE0534B93F8BE30194649
:10291C00514A0B46DB005B1A5B0013442833FA79EF
:10292C001A704F4B02221A7032E04B4B93F8BE30A8
:10293C001946494A0B46DB005B1A5B0013442833EB
:10294C00FA791A70464B03221A7021E0424B00228E
:10295C0083F8AA20404B93F8BF203F4B83F8BE204E
:10296C009CE23E4B1B780133DAB23C4B1A703A4B6B
:10297C0093F8BE301946384A0B46DB005B1A5B00F5
:10298C00134428331B78184600F036FF00E000BFD4
:10299C00324B1A78324B1B789A4209D2FB79184683
:1029AC0000F02AFF2D4B1B780133DAB22B4B1A7037
:1029BC002A4B1A782A4B1B789A4240F06A82264B93
:1029CC00002283F8AA20244B93F8BF20224B83F8D3
:1029DC00BE205EE2204B93F8AB30002B67D0FB7926
:1029EC00F72B07D1F72000F007FF1B4B002283F8D1
:1029FC00AB2053E2184B93F8AC30002B36D0164B6F
:102A0C00002283F8AC20154B00221A70FB79F03BA6
:102A1C00062B27D801A252F823F000BF5D2A00082C
:102A2C00712A0008452A00084D2A0008712A00085E
:102A3C00712A0008552A0008094B03221A7016E067
:102A4C00074B02221A7012E0054B01221A700EE09D
:102A5C00034B00221A700AE024000020F000002032
:102A6C00F1000020B44B00221A7000E000BFB24B02
:102A7C001B78002B05D0B14B1A78AF4B1B789A42C0
:102A8C0009D2FB79184600F0B7FEAC4B1B7801332A
:102A9C00DAB2AA4B1A70A94B1A78A74B1B789A4238
:102AAC0040F0F981A64B002283F8AB20F3E1A44B54
:102ABC0093F8A530002B00F08580A14B93F9B13031
:102ACC000133032B00F2E98101A252F823F000BF7D
:102ADC00A72E0008ED2A0008432B0008A72B00089E
:102AEC00974B002283F8A120FB79EF2B0DD8944B48
:102AFC0093F9B130DBB20133DBB25AB2904B83F8AD
:102B0C00B120FB79002B0CD106E08D4BFF2283F812
:102B1C00B12000F091FBC1E1894B012283F8AF2079
:102B2C0003E0874B002283F8AF20FB791AB2844B69
:102B3C00A3F8962045E0824B042283F8A320FB796E
:102B4C00F82B02D0FB79F92B03D17D4B002283F8B3
:102B5C00A3207B4B93F8A1301A46794B1344FA7996
:102B6C0083F89820764B93F8A1300133DAB2744B8A
:102B7C0083F8A120FB7903F0F003E02B02D000F0E6
:102B8C005BFB1EE06E4B93F9B130DBB20133DBB271
:102B9C005AB26B4B83F8B12013E0694B93F8A13018
:102BAC001A46674B1344FA7983F89820644B93F8D0
:102BBC00A1300133DAB2624B83F8A12000F03CFB68
:102BCC0000BF6AE15E4B93F9B130002B04D0012BAE
:102BDC002DD0B3F1FF3F61E1FB79EF2B07D8584BB8
:102BEC00012283F8B120FB79002B0CD106E0544B69
:102BFC00FF2283F8B12000F01FFB4FE1504B012264
:102C0C0083F8AF2003E04E4B002283F8AF204C4BEF
:102C1C0093F8BE301946FB7918B2494A0B46DB00D3
:102C2C005B1A5B001344263302461A8036E1444B90
:102C3C0093F8BE301A4642491346DB009B1A5B00E0
:102C4C000B4431331B780133D8B23D491346DB00BA
:102C5C009B1A5B000B44313302461A70384B93F8C5
:102C6C00BE301946364A0B46DB005B1A5B00134438
:102C7C0031331A78334B1A70324B1B78012B40F0DE
:102C8C00E680FB7903F0F003B02B00F08280B02BD0
:102C9C0006DC902B7DD0A02B7BD0802B79D09DE0B7
:102CAC00D02B51D0D02B02DCC02B4DD096E0E02B9A
:102CBC006FD0F02B40F09280FB79F72B1DD9204B75
:102CCC0093F8BE3019461E4A0B46DB005B1A5B00BC
:102CDC001344333301221A70194B93F8BE30194642
:102CEC00174A0B46DB005B1A5B0013443033FA794E
:102CFC001A70114B01221A70AAE0114B93F8BE30D6
:102D0C0019460F4A0B46DB005B1A5B001344333346
:102D1C0002221A700A4B93F8BE301946084A0B4629
:102D2C00DB005B1A5B0013443033FA791A70024BE8
:102D3C0001221A708CE000BFF1000020F00000208E
:102D4C0024000020F2000020564B93F8BE301946A8
:102D5C00544A0B46DB005B1A5B00134433330322EB
:102D6C001A70504B93F8BE301A464E491346DB008E
:102D7C009B1A5B000B4432330221197049491346EC
:102D8C00DB009B1A5B000B4432331A78464B1A70EB
:102D9C005EE0444B93F8BE301946424A0B46DB00CA
:102DAC005B1A5B001344333303221A703D4B93F8C8
:102DBC00BE301A463B491346DB009B1A5B000B44A2
:102DCC0032330321197037491346DB009B1A5B0021
:102DDC000B4432331A78344B1A7039E0334B1B786E
:102DEC000133DAB2314B1A702E4B93F8BE301A46BF
:102DFC002C491346DB009B1A5B000B4431331B78C8
:102E0C000133D8B227491346DB009B1A5B000B44F5
:102E1C00313302461A70234B93F8BE301946214ABF
:102E2C000B46DB005B1A5B001344333303221A702E
:102E3C001C4B93F8BE3019461A4A0B46DB005B1A42
:102E4C005B00134432331A78174B1A7000E000BF42
:102E5C00164B1B78012B02D1FB79EF2B10D8114BA1
:102E6C0093F8BE301846114B1B785A1E0D49034679
:102E7C00DB001B1A5B000B4413442833FA791A70DD
:102E8C000A4B1A78084B1B789A4207D100F0D4F9F8
:102E9C0004E000BF02E000BF00E000BF0837BD4601
:102EAC0080BD00BF24000020F1000020F2000020B3
:102EBC0080B584B000AF0346FB71FA7935491346EF
:102ECC00DB009B1A5B000B4433331B78012B04D0C3
:102EDC00032B36D0002B55D057E0FA792D491346E9
:102EEC00DB009B1A5B000B4430331B78BB73BB7B42
:102EFC00FC2B49D1BB7B184600F07EFC254B93F88C
:102F0C00B8305AB2FB79012101FA03F35BB2DB430F
:102F1C005BB213405BB2DAB21E4B83F8B8201D4B88
:102F2C00B3F8BC301AB2FB79012101FA03F31BB2DE
:102F3C00DB431BB213401BB29AB2164BA3F8BC2056
:102F4C0022E00023FB7310E0FA79F97B1148134659
:102F5C00DB009B1A5B0003440B4428331B78184698
:102F6C0000F04AFCFB7B0133FB73FA7909491346E9
:102F7C00DB009B1A5B000B4431331B78FA7B9A42C3
:102F8C00E2D302E000BF00E000BF00BF1037BD4637
:102F9C0080BD00BF2400002080B582B000AF034686
:102FAC00FB71FB791846FFF783FF284B93F8B83079
:102FBC001A46FB7942FA03F303F00103002B2DD0E0
:102FCC00FA7922491346DB009B1A5B000B44313320
:102FDC0000221A70FA791D491346DB009B1A5B001C
:102FEC000B44333300221A70FA7918491346DB006C
:102FFC009B1A5B000B442633F0221A80134BB3F858
:10300C00BC301AB2FB79012101FA03F31BB2134352
:10301C001BB29AB20D4BA3F8BC2012E00B4B93F8E9
:10302C00B830002B0DD1094B93F8A430002B08D1EC
:10303C00064BB3F8BC3043F480539AB2034BA3F85D
:10304C00BC2000BF0837BD4680BD00BF2400002057
:10305C0080B400AF1D4B93F89830FC2B1FD11B4B49
:10306C00002283F89820194B002283F8A420174BD8
:10307C00B3F8BC3023F400739AB2144BA3F8BC2001
:10308C00124B93F8B830002B1BD1104BB3F8BC305B
:10309C0043F480539AB20D4BA3F8BC2011E00B4BB8
:1030AC00002283F8A120094BF022A3F89620074BAD
:1030BC00B3F8BC3043F400739AB2044BA3F8BC20B1
:1030CC0000E000BFBD4680BC704700BF240000205C
:1030DC0080B582B000AF574B9B78002B00F0A480DA
:1030EC00544B93F8AE30002B7FD10023FB7134E0AE
:1030FC00504B93F8B8301A46FB7942FA03F303F0BD
:10310C000103002B26D0FA794A491346DB009B1A9F
:10311C005B000B442633B3F900309BB2013B9BB2EE
:10312C0018B244491346DB009B1A5B000B44263350
:10313C0002461A80FA793F491346DB009B1A5B0062
:10314C000B442633B3F90030002B03DCFB79184613
:10315C00FFF722FFFB790133FB71FB79072BC7D9F2
:10316C00344B93F8A430002B10D0324BB3F996307B
:10317C009BB2013B9BB21AB22E4BA3F896202D4B5F
:10318C00B3F99630002B01DCFFF762FF294B93F863
:10319C00C930002B1CD0274B93F8C8300133DAB25E
:1031AC00244B83F8C820234B93F8C820214B93F869
:1031BC00C7309A420CD31F4B002283F8C8201D4BFA
:1031CC00B3F8BC3043F400539AB21A4BA3F8BC20AA
:1031DC00184B93F8AE30002B09D1164BB3F8BC301A
:1031EC00002B04D000F044F802E000BF00E000BF68
:1031FC00002000F06FFC0F4B93F8C2309BB20D4ACD
:10320C0092F8C02092B202FB03F3BB80BB88002B68
:10321C000CD0BB884EF29022B2FBF3F39BB2194652
:10322C00002000F02FFC02E000BF00E000BF0837D8
:10323C00BD4680BD2400002080B500AF0B4B93F839
:10324C00AF30002B08D0094B012283F8B0200121AC
:10325C00022000F017FC06E0044B93F8B030002B72
:10326C0001D100F005F800BF80BD00BF2400002094
:10327C0080B582B000AF0023FB712B4B002283F88A
:10328C00B020294B93F8AF30002B11D0264B0022E5
:10329C0083F8AF20244B93F8A530002B02D0FFF716
:1032AC00D7FE05E0204B93F8BE301846FFF774FEAE
:1032BC001D4B002283F8AE201B4B93F8A830002B3B
:1032CC002DD0194BB3F8BC30002B28D0164BB3F8CB
:1032DC00BC301A46FB7942FA03F303F00103002BCE
:1032EC0017D0FB79103BDBB21846FEF79BFE0E4B5A
:1032FC00B3F8BC301AB2FB79012101FA03F31BB20B
:10330C00DB431BB213401BB29AB2074BA3F8BC2091
:10331C0006E0FB795A1CFA710F2BD7D900E000BFDD
:10332C000837BD4680BD00BF2400002080B500AF2B
:10333C000B4B002283F8A920094BB3F8B430002BB7
:10334C000CD0074BB3F8B430DBB2013BDBB2184600
:10335C00FEF7C8FE024B0022A3F8B42000BF80BDCC
:10336C002400002080B582B000AF564B1B78002B98
:10337C0014BF01230023DBB21A46524B9A70022071
:10338C0000F0A8FB4F4B002283F8B0204D4B0022DD
:10339C0083F8AA204B4B002283F8AB20494B002228
:1033AC0083F8A420474B002283F8A520454B00222C
:1033BC0083F8A620434B002283F8A820414B00221F
:1033CC0083F8AD203F4B002283F8AE203D4BFF220B
:1033DC0083F8B7203B4B002283F8B620394B93F887
:1033EC00B620384B83F8B820364B4FF6FF72A3F853
:1033FC00BA20344B002283F8B120324B0022A3F8C0
:10340C00B220304B002283F8A7202E4B642283F885
:10341C00C3202C4B93F8C3202A4B83F8C220294B92
:10342C001E2283F8C120274B93F8C120254B83F82B
:10343C00C020244B282283F8C520224B93F8C520AA
:10344C00204B83F8C4201F4B002283F8C6201D4B51
:10345C00002283F8C9201B4B3C2283F8C720194B50
:10346C00002283F8C820FEF72DFE164B0022A3F88D
:10347C00BC20144B0022A3F89620124B002283F898
:10348C00A3200023FB7116E0FA790E491346DB00EA
:10349C009B1A5B000B44333300221A70FA790949EA
:1034AC001346DB009B1A5B000B44263300221A8068
:1034BC00FB790133FB71FB79072BE5D900BF08378A
:1034CC00BD4680BD2400002080B500AF00F014FB89
:1034DC00154B5B7823F07F03DAB2134B5B7803F068
:1034EC004003DBB21946104600F044FA00F036FAFD
:1034FC000346002B14D00C4B002283F824200A4BDB
:10350C00002283F82320084B00229A70064B0122DC
:10351C001A70054B1B78002B04D0FFF723FF02E039
:10352C0000BF00E000BF80BD2400002080B483B049
:10353C0000AF78607B68DB6843F400527B68DA602C
:10354C0000BF0C37BD4680BC704780B483B000AF61
:10355C0078607B681B6803F04003402B0CBF012391
:10356C000023DBB218460C37BD4680BC704780B4D4
:10357C0083B000AF78607B681B6803F08003802BFE
:10358C000CBF01230023DBB218460C37BD4680BCB0
:10359C00704780B483B000AF78607B686FF04002F6
:1035AC001A6000BF0C37BD4680BC704780B483B036
:1035BC0000AF78607B68DB6843F080027B68DA6080
:1035CC0000BF0C37BD4680BC704780B483B000AFE1
:1035DC0078600B46FB70FA787B685A6000BF0C373A
:1035EC00BD4680BC704780B485B000AF786072B6C1
:1035FC007B6803F5FA5302331B881A467B689B5C85
:10360C00FB737B6803F5FA5302331B8801339AB2C0
:10361C007B6803F5FA5302331A807B6803F5FA537F
:10362C0002331B88B3F5FA5F05D37B6803F5FA53B5
:10363C00023300221A8062B6FB7B18461437BD4653
:10364C0080BC704780B483B000AF78600B46FB70D1
:10365C0072B67B6803F5FA531B8819467B68FA78B7
:10366C005A547B6803F5FA531B8801339AB27B6872
:10367C0003F5FA531A807B6803F5FA531B88B3F5EC
:10368C00FA5F04D37B6803F5FA5300221A8062B602
:10369C0000BF0C37BD4680BC704780B586B000AF0C
:1036AC00F860B9601346FB800023FB820AE0FB8ABA
:1036BC00BA6813441B781946F868FFF7C3FFFB8AF6
:1036CC000133FB82FA8AFB889A42F0D300BF183789
:1036DC00BD4680BD80B582B000AF78600B467B8064
:1036EC007B881A4679680C48FFF7D7FF0B48FFF721
:1036FC003EFF0346002B0AD00748FFF774FF034632
:10370C0019460648FFF761FF0448FFF74FFF00BF5B
:10371C000837BD4680BD00BFF400002000440040C7
:10372C0080B582B000AF0346FB711248FFF7FEFE76
:10373C0004E0114B1B6801330F4A13600D48FFF76F
:10374C0016FF0346002BF4D0FB7919460948FFF706
:10375C003CFF04E0084B1B680133074A1360054823
:10376C00FFF705FF0346002BF4D000BF0837BD461A
:10377C0080BD00BF004400405424002080B584B0BC
:10378C0000AF0346FB711A4B1B7823F00F03DAB220
:10379C00174B1A70164B1A78FB791343DAB2144B89
:1037AC001A70FA7913469B0013445B00114A1344B8
:1037BC00BB600023FB730CE0FB7BBA6813449A7864
:1037CC000B4B5A7003210A48FFF784FFFB7B013334
:1037DC00FB73BB681B78FA7B9A42EDD3BB68002263
:1037EC001A70BB6800225A7000BF1037BD4680BDEE
:1037FC0004000020B043002080B584B000AF034625
:10380C00FB71FB79F72B07D94F4AFB79D372012156
:10381C004E48FFF75FFF94E097F90730002B0ADA68
:10382C00494AFB791370484B00229A70FB79484A3D
:10383C00D25C454B5A70444B5B78002B7AD0424B90
:10384C009B785A1CD1B2404A91701A463E4B134495
:10385C00FA79DA703C4B9A783B4B5B789A4270D38E
:10386C00394B93F81A34002B59D0374B1B7803F093
:10387C00F003902B33D1344B5B79002B27D0324B98
:10388C001B7803F00F0213469B0013445B00314A74
:10389C001344FB60FB685B785A1CD1B2FA68517018
:1038AC001946294B1A79FB680B449A70FB685B78B4
:1038BC00082B02D1FB6800225A70FB681B78072B7F
:1038CC0005D8FB681B780133DAB2FB681A701E4B03
:1038DC005B789BB219462048FFF7FCFE26E01A4B9A
:1038EC001B7803F0F003B02B11D1174B1B797A2BFB
:1038FC000DD9154B1B795BB2002B08DB124B1B78D7
:10390C0003F00F03DBB21846FFF738FF0EE00E4B47
:10391C005B789BB219461048FFF7DCFE06E00A4BB9
:10392C005B789BB219460C48FFF7D4FE064B01227C
:10393C009A7006E0044AFB79D37201210348FFF721
:10394C00C9FE1037BD4680BD382000204320002022
:10395C00A0400008B04300203B20002080B400AF02
:10396C00034B93F81B341846BD4680BC704700BF10
:10397C003820002080B584B000AF03460A46FB71A6
:10398C001346BB71394B00221A80394AFB7982F8F5
:10399C001734374B00221A70354B002283F8182449
:1039AC00334B00229A70324B00225A70BB79002B99
:1039BC0014BF01230023DBB21A462D4B83F81A24C3
:1039CC002B4B012283F81B242A4800F0F7F872B61F
:1039DC000023FB7308E0FB7B274AD35C1846FFF7F8
:1039EC009FFEFB7B0133FB73FB7B1D2BF3D9B023B9
:1039FC00FB730CE0FB7B1846FFF792FE7B20FFF776
:103A0C008FFE0020FFF78CFEFB7B0133FB73FB7BEF
:103A1C00BF2BEFD90023FB7315E0FA7B1749134634
:103A2C009B0013445B000B4400221A70FA7B134971
:103A3C0013469B0013445B000B44013300221A70A5
:103A4C00FB7B0133FB73FB7B0F2BE6D900BF0C48D0
:103A5C00FFF77BFD0346002BF9D00948FFF799FDD2
:103A6C0062B600BF1037BD4680BD00BFAC4300201E
:103A7C0038200020F4000020A0410008B0430020B2
:103A8C000044004080B582B000AF03460A46FB718B
:103A9C001346BB80BB88002B10D1FB79012B07D0C0
:103AAC00022B08D0002B00D009E00123BB8006E0DC
:103ABC00FFF73CFC03E0FFF7DBFB00E000BFFB790A
:103ACC000349BA8821F8132000BF0837BD4680BDD2
:103ADC005824002080B483B000AF0346FB71FB79FF
:103AEC00044A002122F8131000BF0C37BD4680BCDD
:103AFC00704700BF5824002080B582B000AF00236F
:103B0C00FB7106E0FB791846FFF7E4FFFB79013304
:103B1C00FB71FB79022BF5D900BF0837BD4680BD80
:103B2C0080B584B000AF0346FB71FB79002B02D04B
:103B3C000120FEF745FA1F4B1B88002B05D01D4BAF
:103B4C001B88013B9AB21B4B1A800023FB7329E0A4
:103B5C00FB7B194A32F81330002B1FD0FB7B164A23
:103B6C0032F81320013A91B2134A22F81310FB7B5E
:103B7C00114A32F81330002B10D1FB7B012B07D0EC
:103B8C00022B08D0002B00D009E0FFF7A1FA06E0C9
:103B9C00FFF7CCFB03E0FFF76BFB00E000BFFB7B08
:103BAC000133FB73FB7B022BD2D900BF1037BD4610
:103BBC0080BD00BFAC4300205824002080B483B0EB
:103BCC0000AF78607B6803F5FA5300221A807B689B
:103BDC0003F5FA53023300221A807B6800221A7014
:103BEC0000BF0C37BD4680BC704780B483B000AFBB
:103BFC0078607B681B6803F08003802B0CBF01236B
:103C0C000023DBB218460C37BD4680BC704780B42D
:103C1C0083B000AF78607B68DB6843F080027B6820
:103C2C00DA6000BF0C37BD4680BC704780B483B0EF
:103C3C0000AF78600B46FB70FA787B685A6000BF67
:103C4C000C37BD4680BC704780B485B000AF78603F
:103C5C0072B67B6803F5FA5302331B881A467B68ED
:103C6C009B5CFB737B6803F5FA5302331B880133AF
:103C7C009AB27B6803F5FA5302331A807B6803F51A
:103C8C00FA5302331B88B3F5FA5F05D37B6803F54F
:103C9C00FA53023300221A8062B6FB7B18461437A3
:103CAC00BD4680BC704780B483B000AF78600B46D3
:103CBC00FB7072B67B6803F5FA531B8819467B6858
:103CCC00FA785A547B6803F5FA531B8801339AB27D
:103CDC007B6803F5FA531A807B6803F5FA531B884B
:103CEC00B3F5FA5F04D37B6803F5FA5300221A800C
:103CFC0062B600BF0C37BD4680BC704780B485B03F
:103D0C0000AF0346FB71144B1B78FF2B01D1FB79E1
:103D1C001DE0124B1B78002B07D10F4B1B78FA7947
:103D2C00934228BF1346DBB211E0FB799BB20A4ADF
:103D3C00127892B202FB03F3FB81FB891B0AFB8115
:103D4C00FB89FF2B01D9FF23FB81FB89DBB21846D2
:103D5C001437BD4680BC70475144002055450020A7
:103D6C0080B582B000AF0346FB71FB7919460C4855
:103D7C00FFF799FF0B48FFF738FF0346002B0AD0DB
:103D8C000748FFF761FF034619460648FFF74EFF49
:103D9C000448FFF73CFF00BF0837BD4680BD00BF9D
:103DAC00602400200038014080B582B000AF03468B
:103DBC00FB718B4B1B78092B00F2FF8001A252F890
:103DCC0023F000BF173E0008A33E00087F3E00080A
:103DDC00873E0008853F0008773F0008BF3E00087B
:103DEC00013F00081B3F0008F93D00087D4B1B7884
:103DFC00013BDAB27B4B1A707A4B1B78002B40F0EC
:103E0C00D980774B00221A70D4E0FB7903F0F003D1
:103E1C00B02B07D0F02B09D0902B16D1704B02226F
:103E2C001A70CAE06E4B01221A70C6E0FB79F02BB7
:103E3C0003D16B4B06221A70CCE0FB79F72B40F0C8
:103E4C00C980674B00221A70C4E0FB79664AD35CC8
:103E5C00002B03D1624B00221A7009E0FB79624AF5
:103E6C00D35C013BDAB25F4B1A705D4B09221A70BE
:103E7C0000BF5B4B03221A709FE05C4B1B78022B3C
:103E8C0005D1FB791846FFF739FF0346FB71544BFC
:103E9C0000221A7091E0FB790B2B03D1504B0322BB
:103EAC001A708AE04F4B01221A704D4B09221A707E
:103EBC0083E04E22FB79934203D1494B07221A70BF
:103ECC008BE0474B04221A70F020FEF70BF9F02020
:103EDC00FEF754FCFB791846FEF704F9FB791846FB
:103EEC00FEF74CFCF020FFF73BFFFB791846FFF781
:103EFC0037FF72E03E4B00221A703E4B00221A70C4
:103F0C003D4AFB791370364B08221A7055E03A4B38
:103F1C001B78012B14D0022B1CD0002B00D05CE0A2
:103F2C00FB791B01DAB2334B1B781344DAB2314BF9
:103F3C001A70FB7903F00F03DAB22D4B1A7013E0F1
:103F4C00FB7903F00F03DAB2284B1A70244B0522CD
:103F5C001A7009E0FB7903F00F03DAB2274B1A70E1
:103F6C001F4B05221A7000BF37E0FB79F72B33D1BA
:103F7C001B4B00221A702FE0214B1B78DBB2194629
:103F8C00204AFB7953541E4B1B78DBB2FF2B03D119
:103F9C001B4B00221A7006E0194B1B78DBB2013365
:103FAC00DAB2174B1A70FB79F72B05D10C4B0022A8
:103FBC001A7001E000BF00E000BFFB791846FEF765
:103FCC0091F8FB791846FEF7D9FBFB791846FFF7F9
:103FDC00C7FE02E000BF00E000BF0837BD4680BD51
:103FEC005E2400205F240020A040000850440020E4
:103FFC0054450020514400205244002055450020D7
:10400C00A443002054440020002103E00B4B5B58D8
:10401C00435004310A480B4B42189A42F6D30A4AD1
:10402C0002E0002342F8043B084B9A42F9D3FDF717
:10403C00B3FAFCF7A9F8FCF761FC7047C84100081B
:10404C000000002008000020080000205845002037
:10405C00FEE70000F8B500BFF8BC08BC9E467047F0
:0C406C00F8B500BFF8BC08BC9E467047C9
:104078000001FF00FF000001010000FF00FF010038
:104088000000000000000000010203040607080900
:10409800000000000102030400000000000000000E
:1040A8000000000000000000000000000000000008
:1040B80000000000000000000000000000000000F8
:1040C80000000000000000000000000000000000E8
:1040D80000000000000000000000000000000000D8
:1040E80000000000000000000000000000000000C8
:1040F80000000000000000000000000000000000B8
:1041080000000000000000000000000000000000A7
:10411800000000000000000003030303030303037F
:104128000303030303030303030303030303030357
:104138000303030303030303030303030303030347
:104148000303030303030303030303030303030337
:10415800030303030303030302020202020202022F
:104168000202020202020202020202020202020227
:10417800020202020202020203030303030303030F
:104188000303030303030303000203020000010007
:104198000100010101000100F04110161220000089
:1041A80020202A2A2A20486172644D5055202A2A44
:0841B8002A20202013F700006B
:0441C000750100087D
:0441C4004D010008A1
:0841C80000A24A04800000007F
:04000005080040159A
:00000001FF
